:100000000C945F020C948D040C94A6020C94A6022E
:100010000C94A6020C94A6020C94A6020C94A602C0
:100020000C94A6020C94A6020C94C5220C9498235E
:100030000C94F01C0C94A6020C94A6020C94A6023C
:100040000C94A6020C94A6020C94A6020C94A60290
:100050000C94A6020C94581D0C94A6020C94A602B3
:100060000C94A6020C94A6020C94A6020C94A60270
:100070000C94A6020C94A6020C94A6020C94A60260
:100080000C94A6020C94A6020C94A6020C94A60250
:100090000C94A6020C94A6020C94A6020C94A60240
:1000A0000C94A6020C94A6020C94A6020763423696
:1000B000B79BD8A71A39685618AEBAAB558C1D3CF9
:1000C000B7CC5763BD6DEDFD753EF6177231BF00BD
:1000D0000000803F05A84CCDB2D44EB93836A902F5
:1000E0000C50B9918688083CA6AAAA2ABE00000036
:1000F000803F290014001A000800150017000000B6
:100100002B0004001600070009000A000000E100AF
:100110001D001B000600190005000000E000E300C0
:10012000E20002512C00000000001C0018000C002E
:10013000120013004C002A000B000D000E000F00EF
:1001400033000000280011000000100036003700C6
:10015000E50001512C0000000000E400E60003511E
:10016000025135003A003B003C003D003E000000DB
:100170001E001F00200021002200230000000100BB
:100180000100010001000100340000000100010035
:10019000010001000100000000003F00400041009C
:1001A00042004300440045002400250026002700AB
:1001B0002D0000002E00380000002F00300031001C
:1001C0000100010001000000000001000100010029
:1001D00001003502810080007F0001000100000065
:1001E0001E021F022002210222022302000001003F
:1001F00001000100010001003402000001000100C3
:100200000100010001000000000001004B0052004D
:100210004E0027024700480024022502260227023A
:100220002D0200002E02380200002F02300231029F
:1002300001000100010000000000010001000100B8
:1002400001000100810080007F000100010000002A
:100250003900BC00AE00BB0001000100000001003D
:100260000100010001000100010000000100010087
:100270000100010001000000000001004B005200DD
:100280004E002702470048004A00500051004F002E
:10029000490000002E024D0000000053015302539C
:1002A00003530100010000000000010001000100F3
:1002B000010000046801F000B40078005A007F3F9C
:1002C0001F643214643214783C1E1E140A050000A8
:1002D000000000010101010101010101020202020D
:1002E00002020202020303030303030303040404E0
:1002F00004040405050505050606060606070707A6
:1003000007080808080909090A0A0A0A0B0B0B0C56
:100310000C0C0D0D0D0E0E0F0F0F101011111112F0
:100320001213131414151516161717181819191A6D
:100330001A1B1C1C1D1D1E1F1F20202122222324CE
:10034000252526272728292A2B2B2C2D2E2F2F3009
:10035000313233343536363738393A3B3C3D3E3F1F
:100360004041424344464748494A4B4C4D4F505107
:100370005253555657585A5B5C5E5F6062636466C1
:1003800067696A6C6D6E707173747678797B7C7E48
:100390008081838486888A8B8D8F91929496989A97
:1003A0009B9D9FA1A3A5A7A9ABADAFB1B3B5B7B9AD
:1003B000BBBDBFC1C4C6C8CACCCFD1D3D6D8DADC86
:1003C000DFE1E4E6E8EBEDF0F2F5F7FAFCFF040319
:1003D00030000000100346006F00750072006900D5
:1003E0006500720000000E034B00650065006200AE
:1003F00069006F0000000403090409023B000201C8
:1004000000A0FA0904000001030101000921110103
:1004100000012240000705810308000A09040100C9
:100420000103000000092111010001223600070527
:10043000820308000A120110010000000810CB47D7
:100440001200010102030105010980A101850216C4
:1004500001002603001A81002A830075109501818E
:1004600000C0050C0901A1018503160100269C02AC
:100470001A01002A9C02751095018100C00501092E
:1004800006A101050719E029E71500250195087562
:100490000181029501750881010508190129059559
:1004A0000575019102950175039101050719002950
:1004B000FF150026FF00950675088100C000112475
:1004C0001FBECFEFDAE0DEBFCDBF04B603FE27C00C
:1004D0008091190290911A02A0911B02B0911C0206
:1004E0008730904BA740B04BD1F410921902109274
:1004F0001A0210921B0210921C0214BE84B7877F4E
:1005000084BF0FB6F894A8958091600088618093AD
:100510006000109260000FBEE0E0F8E3099511E082
:10052000A0E0B1E0EAE1F2E502C005900D92A03250
:10053000B107D9F722E0A0E2B1E001C01D92A931D4
:10054000B207E1F70E94F21F0C940B290C940000F3
:10055000089508950C94A9028091C9018360886070
:100560008093C901A7E1B1E061E070E08D91E82FCF
:10057000E295EF70F0E041A18F709B0101C0220F66
:100580008A95EAF7922F9095942391A382A1822BCA
:1005900082A381E0AB31B80749F7A0E1B1E061E0A7
:1005A00070E08D91E82FE295EF70F0E041A18F703F
:1005B0009B0101C0220F8A95EAF7922F9095942310
:1005C00091A382A1822B82A381E0A731B80749F7CA
:1005D000559A209AE0E2F1E0A9E2B1E088E291E0E8
:1005E00011921D928E179F07D9F70C9449054F92CF
:1005F0005F927F928F929F92AF92BF92CF92DF9243
:10060000EF92FF920F931F93CF93DF93809100019E
:1006100004E010E0882311F010E000E0C801875DDD
:100620009E4F7C0187E1C82E81E0D82EE701AA24E5
:10063000A394B12C9924939488801882D6018D912B
:100640006D01E82FE295EF70F0E091A18F709501B8
:1006500001C0220F8A95EAF7892F822B81A382A1FC
:10066000722E7094872182A3B0EABA95F1F740E127
:1006700051E090E080E0DA017D91AD01A72FA295D5
:10068000AF70B0E09096BC91A8817F70250102C048
:10069000440C551C7A95E2F7B2016B2309F04EC069
:1006A0006A2D082E01C0660F0A94EAF76A2B688348
:1006B000019687309105F9F681A1872181A382A156
:1006C000282B22A38881881641F0909231010E9444
:1006D000221D909333018093320121968BE1C8163D
:1006E00081E0D80609F0A8CF809131018823A9F0D4
:1006F00080913201909133010E942E1D069768F07F
:10070000F801E05EFE4F80E0D7019D917D0191935D
:100710008F5F8430C9F71092310181E0DF91CF9172
:100720001F910F91FF90EF90DF90CF90BF90AF900F
:100730009F908F907F905F904F90089560E0B6CF2C
:10074000CF93DF9380910001D0E0C0E0882311F0C7
:10075000C4E0D0E00E94F204009789F4C05EDE4F4E
:1007600030E020E0F901EA5CFE4F408149932F5FC1
:100770003F4F24303105B1F7DF91CF91089581E0EB
:1007800090E0FACFCF930E94F702C82F0E94A003F7
:10079000892BD9F05D98809128018F5F8093280183
:1007A000863070F080910001F0E0E0E0882311F0E5
:1007B000E4E0F0E0E05EFE4F1082118212821382CC
:1007C0000E944B058C2FCF9108955D9A10922801BD
:1007D000F7CF0E94F70280910001E4E0F0E0882367
:1007E00011F0F0E0E0E0E05EFE4F90E080E021916B
:1007F000DC01AA5CBE4F2C93019684309105B9F7B9
:100800000895E82FF0E0E05EFE4F8081089508959E
:10081000E8EDF0E08081806180838AE18A95F1F7DC
:1008200000C08091D9008170089552985A9889B17A
:1008300082FB882780F9809300010E9408048823A6
:1008400021F00E948004789408950E94191D0E944E
:100850008404F9CF0E94AC020E94E903FDCF0E94FC
:1008600015040E940804811102C00E942A04089500
:10087000509A08955098589A0895589A08950E9449
:100880003A04489BFECF80E88A95F1F708950E94CC
:100890003A0498E080E029B1880F2170822B20E88B
:1008A0002A95F1F725E02A95F1F70000915099F784
:1008B00008950F931F93CF93082F0E943804C8E028
:1008C00010E0C15020F4CF911F910F910895C801FD
:1008D0000C2E02C0959587950A94E2F780FF06C01A
:1008E0000E943D0480E88A95F1F7EBCF5898FACF43
:1008F0000E943804589880E88A95F1F70C943D04DA
:100900000E9438040C943D040E943A04E89AE9E6F7
:10091000F0E080818C7F808308951F920F920FB644
:100920000F921124EF92FF921F932F933F934F93B7
:100930005F936F937F938F939F93AF93BF93CF9367
:10094000DF93EF93FF930E947804D0E0C0E010E0C3
:10095000CE018A5C9E4F7C01FC0180810E9459047B
:100960000E947804F7018081180F2196C430D105C8
:1009700079F7812F0E9459040E947804F0E8FA95D3
:10098000F1F780E48A95F1F70E94470480933501DE
:100990000E947804C09135010E944704D82F0E941C
:1009A00078040E943A0480913401DC17C9F0816018
:1009B00080933401FF91EF91DF91CF91BF91AF917F
:1009C0009F918F917F916F915F914F913F912F9167
:1009D0001F91FF90EF900F900FBE0F901F901895F2
:1009E0008E7FE6CFEF92FF921F93CF93DF93F89421
:1009F0000E943804589825E02A95F1F700000E94DB
:100A00003A040E943D0430E83A95F1F7489B09C04A
:100A1000789481E090E0DF91CF911F91FF90EF906B
:100A200008950E943F04D0E0C0E010E00E94470417
:100A3000FE01EA5CFE4F7F0180830E943F04F701C4
:100A40008081180F2196C430D10581F70E94470498
:100A5000C82F0E943F04C113DBCF809135010E9453
:100A600059040E943F04809135010E9459040E945C
:100A70003F040E9438040E943D04789490E080E096
:100A8000CACF0C94A80281E0089581E008950C94E7
:100A900045050C9441050C94AA0208950C944D054B
:100AA0000C944E0508950E942E160E9452052FEFB9
:100AB00084E39CE0215080409040E1F700C00000BA
:100AC00087E797E790930108809300080C947E1DB8
:100AD0000F931F93CF93DF938C01FC01C081D181D1
:100AE000CE010E941B1BBE010E940B08EC01B80145
:100AF0000E944705882309F4F5C0B801CE010E9481
:100B00006F0A882309F4EEC0C93CFCE5DF0709F44D
:100B100021C108F056C0C13C9CE5D90709F4F2C0D8
:100B200070F5C531FCE5DF07D0F4C2308CE5D8079D
:100B300008F08FC1C1159CE5D90709F4CEC0C130BA
:100B4000DC4509F4D5C081E080933F0180934001EA
:100B5000C801DF91CF911F910F910C944305C531CE
:100B6000FCE5DF0709F433C2C03CDC4561F7F8015E
:100B70008281882309F4B6C00E940D0EB3C0F8012B
:100B80008281C53CFCE5DF0709F4D5C068F4C33CAD
:100B9000ECE5DE0709F4CAC008F4BFC0882309F4F5
:100BA000A1C00E94A10C9EC0C73C9CE5D90709F4D6
:100BB000CCC008F4C5C0882309F494C00E94080D75
:100BC00091C0C13DFCE5DF0709F413C1F0F5F80160
:100BD0008281CD3CFCE5DF0709F4D0C0D8F4CB3CE2
:100BE000ECE5DE0709F4C3C008F4BBC0882309F4B0
:100BF00079C00E944D0B623071058105910540F06E
:100C00000E944D0B653071058105910508F48BC07C
:100C100082E0B1C0CF3C9CE5D90709F4D6C008F406
:100C2000C0C0882309F45EC00E944D0B6531710578
:100C30008105910540F00E944D0B673171058105DA
:100C4000910508F470C085E196C0C53DFCE5DF075D
:100C500009F49AC1C0F4F8018281C33DFCE5DF07C5
:100C600009F4E2C008F4CCC0882309F476C11092DC
:100C70003F010E94221D90933C0180933B0182E042
:100C80000E949A132FC0C93DECE5DE0709F4D1C0DC
:100C9000CA3DFCE5DF0709F4D5C0C63DDC4509F0D7
:100CA00052CFF8018281811173C18091400181117D
:100CB0008CC180913D0190913E010E942E1D883C87
:100CC000910508F082C180E20E94A11388E20E948F
:100CD000701288E20E944B1305C0F80182818111D5
:100CE0000E94530580E0DF91CF911F910F910895ED
:100CF000F80182818823B1F38091C90181608093DA
:100D0000C901F0CFF8018281882361F30E94E11BC1
:100D1000827249F00E947D0DE5CF882319F30E946D
:100D2000E11B8272B9F30E94730DDCCF8823D1F2EC
:100D30000E94890CD7CF8823A9F20E94C00CD2CF81
:100D4000882381F20E94D80CCDCF882359F20E94CB
:100D5000F00CC8CFF8018281882321F20E945B0B3E
:100D6000C1CF882309F4BECF0E94700BBBCF88236C
:100D700009F4B8CF81E00E94700DB4CF882309F444
:100D8000B1CF0E944D0B663071058105910538F099
:100D90000E944D0B683071058105910520F286E0B7
:100DA000EACF882309F49ECF0E944D0B693071056C
:100DB0008105910540F00E944D0B6E307105810553
:100DC000910508F4B0CF89E0D6CF882309F48ACF03
:100DD0000E944D0B6F3071058105910540F00E9416
:100DE0004D0B643171058105910508F49CCF8FE0AE
:100DF000C2CFF8018281882309F474CF88E1BBCF88
:100E0000882309F46FCF0E944D0B6931710581056C
:100E1000910540F00E944D0B6232710581059105EC
:100E200008F481CF89E1A7CF882309F45BCF83E25F
:100E3000A2CFF8018281882309F454CF80E00E9478
:100E40008D2050CFF8018281882309F44BCF82E0B6
:100E5000F6CFF8018281882309F47ACE0E94411CE2
:100E6000811102C00E94201C0E94541C90E09093AB
:100E70000B0280930A02FE01E350FC4580910A02B6
:100E80008160E231F105C8F4E85BF84F0C94BD28AD
:100E90005A0766076A076E07720776077A077E07A2
:100EA000820786078A078E07920796079A079E078A
:100EB000A207A60780910A02826080930A028091AD
:100EC0000A020E94581C0E942E160CCF80910A0222
:100ED0008460F3CF80910A028860EFCF80910A028C
:100EE0008061EBCF80910A028062E7CF80910A0295
:100EF0008064E3CF80910A028068DFCF80910A028C
:100F00008460EACF80910A028E7FD7CF80910A0257
:100F10008D7FD3CF80910A028B7FCFCF80910A0241
:100F2000877FCBCF80910A028F7EC7CF80910A0244
:100F30008F7DC3CF80910A028F7BBFCF80910A0241
:100F40008F77BBCF80910A028B7FEACF90910A0204
:100F5000892F97FB87F98058B0CF80913F0181118D
:100F60000FC080913B0190913C010E942E1D883C56
:100F7000910530F486E20E94701286E20E944B13C3
:100F800082E00E94A113AECEF8018281882351F045
:100F9000109240010E94221D90933E0180933D01DA
:100FA00080E26ECE8091400181110FC080913D01A1
:100FB00090913E010E942E1D883C910530F487E2FD
:100FC0000E94701287E20E944B1380E2DACF0E94E7
:100FD000E11BF8019281992381F08A7A91E009F46A
:100FE00090E090933A01811106C089E20E946A1B49
:100FF0000E94AE1B77CE85E3F9CF80913A01811133
:1010000004C089E20E94711BF3CF85E3FBCF90E01F
:1010100080E008950895972F70E027E0929F600D7B
:10102000711D1124FB0198E3899FE00DF11D11242E
:10103000EE0FFF1FEE50FF4F859194910895FC0134
:10104000EE0FFF1FEE54FD4F859194910895CF93BD
:10105000DF930E940B080E94CB09EC01811590459B
:1010600008F043C0C11580E4D80708F00AC1C83EA3
:10107000D10528F5C03ED10508F09EC0C83AD1057B
:1010800080F4C53AD10508F08DC0C130D10509F40E
:1010900093C020F0C430D10508F08EC0D0E0C0E08D
:1010A0008BC0CD3BD10508F48BC0CE01805C91098B
:1010B000C03CD10598F30E941F08EC017DC0C1150A
:1010C00020E2D20750F4C11581E0D80708F074C0BF
:1010D000C03FD10518F3D0656FC0C11520E3D2071A
:1010E00008F0C5C0CE019F70E6CFC11585E5D807D1
:1010F00060F5C11524E5D20708F0F1C0C11582E5FD
:10110000D80750F4C11521E5D20708F4BDC0DC2F83
:10111000CC27C16FD06A50C09C2F969596959E01A2
:1011200023703327C115D34508F0CAC0C1E0D0E011
:1011300002C0CC0FDD1F2A95E2F720E2929FC0018A
:101140001124C82BD92BDC6837C0C11529E5D2077B
:1011500080F4C11588E5D80708F0C6C0C11526E59A
:10116000D20708F09BCFDC2FCC27CC27DF71D062D1
:1011700023C0C1158AE5D80708F4BBC0CE0190563C
:101180008115904208F08ACF8D2F8F710E944B0AF3
:10119000DD27D06290E0982F882788279F71C82B81
:1011A000D92B0AC0C53AD10509F4B0C0C63AD10559
:1011B00009F4AFC0C3E8D0E4CE01DF91CF91089528
:1011C000C83AD10509F4A8C0C93AD10509F4A7C0A5
:1011D000CA3AD10509F4A6C0CB3AD10509F4A5C095
:1011E000CC3AD10509F4A4C0CB3BD10509F4A3C086
:1011F000CC3BD10509F4A2C0CD3AD10509F4A1C078
:10120000C03BD10509F4A0C0CE3AD10509F49FC076
:10121000CF3AD10509F49EC0C13BD10509F49DC068
:10122000C23BD10509F49CC0C33BD10509F49BC066
:10123000C43BD10509F49AC0C53BD10509F499C056
:10124000C63BD10509F498C0C73BD10509F497C046
:10125000C83BD10509F496C0C93BD10509F495C036
:10126000CA3BD10509F094C0CAE2D6E4A5CFCE01AD
:101270009927D3FF03C0EC01D86C9ECFEC01D06C52
:101280009BCFDF70D06A98CFCE01E4E0969587952A
:10129000EA95E1F783709C2F937021E030E002C063
:1012A000220F331F9A95E2F73C68382BC695C695F6
:1012B000C37080E2C89FE0011124C22BD32B7CCFE6
:1012C000C1E0D0E002C0CC0FDD1F2A95E2F720E29A
:1012D000929FC0011124C82BD92BDA686DCFDC2F67
:1012E000CC27C46FD06A68CFDC2FCC27C06FD06A00
:1012F00063CFCE0134E0969587953A95E1F78F70EC
:10130000CF70C06ED0E0D06AD82B56CFC1E8D0E401
:1013100053CFC2E8D0E450CFC2EED4E44DCFC9EEF3
:10132000D4E44ACFCAEED4E447CFC5EBD4E444CFEB
:10133000C6EBD4E441CFC3EBD4E43ECFC4EBD4E45A
:101340003BCFC7EBD4E438CFCCECD4E435CFCDECF5
:10135000D4E432CFC3E8D5E42FCFCAE8D5E42CCF0C
:10136000C2E9D5E429CFC4E9D5E426CFC1E2D6E469
:1013700023CFC3E2D6E420CFC4E2D6E41DCFC5E23A
:10138000D6E41ACFC6E2D6E417CFC7E2D6E414CF2C
:10139000C0E0D4E411CF8238910549F1B0F4813333
:1013A000910509F45CC048F48932910509F452C0F2
:1013B0008A32910509F458C008958533910509F4DE
:1013C00044C08933910599F00895833E910531F128
:1013D00038F4803E910591F0823E9105B1F0089578
:1013E000863E910511F1873E910541F108952091C6
:1013F0000A022370C9F080EE90E0089520910A025D
:1014000020FF12C089E390E0089520910A0222FF94
:101410000BC024FF2EC090E080E0089520910A02C6
:1014200022FD2AC024FDF7CF089520910A0223FF50
:10143000FBCF24FDF0CF87EE90E0089520910A02C3
:1014400023FFF0CF86EE90E0089520910A0225FD5B
:1014500016C0089520910A0225FD14C00895209118
:101460000A0226FD12C0089520910A0226FD10C02E
:10147000089583EE90E0089582EE90E0089589E269
:1014800090E0089585E390E008958AE290E0089561
:1014900081E390E0C9CF90910A0292FF06C0282F05
:1014A0002871283069F4877F846093FF06C0282F55
:1014B0002871283161F4877E846194FD877E0895C8
:1014C000282F2471243089F78B7F8860EECF282F56
:1014D0002471243191F78B7E8861EFCF08950F93AB
:1014E0001F93CF938C01FB018281811106C0C1E063
:1014F0008C2FCF911F910F910895C0914E01C11172
:1015000025C006311C4599F70E946E0A81E0809340
:101510004E010E94221D90934D0180934C01109228
:101520004101109243011092420110924501109224
:101530004401109247011092460110924901109205
:10154000480110924B0110924A01D2CF80914C0178
:1015500090914D010E942E1D8C32914040F6809159
:101560004101E82FF0E0EE0FFF1FEE5BFE4F11830D
:1015700000838F5F80934101C0E0BACFCF92DF92AA
:10158000EF92FF920F931F93CF93DF93E9016623AE
:1015900009F466C0E42EF12CEFEFF0E0E61BF10950
:1015A000EE9D8001EF9D100DFE9D100D1124212F49
:1015B000E12FFF27EE1AFF0A5CE3C52ED12CB601FE
:1015C0000E949528FB01BC01E69EC001E79E900D9C
:1015D000F69E900D1124B6010E949528E230F10587
:1015E00089F168F4812F262F210F309781F0242F65
:1015F000461B319761F080E020E040E008C0E43015
:10160000F10551F128F1842F861B3597A1F7E42FBE
:10161000F0E0E253FD4F4491E22FF0E0E253FD4F42
:101620009491E82FF0E0E253FD4FE49149839883D1
:10163000EA83DF91CF911F910F91FF90EF90DF90A0
:10164000CF900895862F810FE42F412F2E2FDFCFCB
:10165000E42FE61B842FF9CF842F462F410FD7CFDD
:10166000842F242FD4CF88E090E00C94CB28AB01BA
:10167000BC0188E090E00C94E928E7EDF1E083E01C
:1016800080831092D8018FEF8283838314826081DC
:101690007181828193810C94370B6091D70160FF37
:1016A00006C066956F7370E090E080E0089560E09A
:1016B00070E0CB0108958091DB0190E001968430C9
:1016C000910514F083E090E08093DB016091D701F5
:1016D0007091D8018091D9019091DA010C94370B67
:1016E0008091DB018150990B97FF02C090E080E070
:1016F0008430910514F083E090E08093DB016091E9
:10170000D7017091D8018091D9019091DA010C94A0
:10171000370B8091D701ECEDF1E080FF06C06EE061
:1017200070E08CED91E00C943C11118210821282D9
:10173000339682E0E630F807C1F7F1CF9091D701F8
:1017400090FF0CC0ECEDF1E081836083428333961F
:1017500092E0E630F907C1F70C94890B0895CF9316
:10176000DF9300D01F92CDB7DEB72091D70120FFC5
:101770000AC09E012F5F3F4F0E94BE0A4B816981C4
:101780008A810E949E0B0F900F900F90DF91CF9156
:1017900008953F924F925F926F927F928F929F92A5
:1017A000AF92BF92CF92DF92EF92FF920F931F936F
:1017B000CF93DF9300D01F92CDB7DEB78C01462EBA
:1017C000542E322E8091D70180FF30C0982F9E7703
:1017D000923009F040C09E012F5F3F4FC8010E9428
:1017E000BE0A4B8169818A810E949E0B8091D7013C
:1017F00000FB87F98093D701902F96958091D801AF
:101800008078892B10FB87F98093D8014092D90109
:101810005092DA01332051F06091D7017091D801D4
:101820008091D9019091DA010E94370B0F900F90AF
:101830000F90DF91CF911F910F91FF90EF90DF906C
:10184000CF90BF90AF909F908F907F906F905F9060
:101850004F903F900895E82FE695EF739EE39E0F1B
:101860009F73943018F45090DA01C0CF9AE39E0F22
:101870009F73993068F4881F8827881F9091D8013A
:10188000292F220F022F082B97FB112710F9AECF1B
:1018900087E28E0F8F738A3008F0A8CFE951FF0BD3
:1018A0002FEFE0FF21E0EE7FEC54FD4F8591949106
:1018B0006EE070E00E94952826033001279F700C8F
:1018C0001124680188E9C81A8EEFD80A8CEDE82E39
:1018D00081E0F82E96E0A92E92E0B92E28E6822E1D
:1018E00099249394C601B4010E9495289701452D2F
:1018F000642D0E94BE0AC60CD71C83E0E80EF11CC2
:10190000AE14BF0479F70E94890B70CF21E00C94CC
:10191000C90BE7EDF1E02081221F2227221F309121
:10192000D801432F440F842F822B37FB992790F93E
:101930000A9668E671E00E94A928438162810C94AE
:10194000860C2091D701221F2227221F3091D80117
:10195000432F440F842F822B37FB992790F98A302D
:10196000910540F4825A9E4F4091DA016091D9016D
:101970000C94860C0A9768E671E00E94A928F4CFBF
:101980006091D9016F3E90F46F5E8091D701881FFE
:101990008827881F9091D801292F220F97FB99271C
:1019A00090F94091DA01822B0C94860C6FEFEDCF09
:1019B0006091D901613190F061518091D701881F08
:1019C0008827881F9091D801292F220F97FB9927EC
:1019D00090F94091DA01822B0C94860C60E0EDCFF7
:1019E0004091DA014F3E90F44F5E8091D701881FFD
:1019F0008827881F9091D801292F220F97FB9927BC
:101A000090F96091D901822B0C94860C4FEFEDCFA9
:101A10004091DA01413190F041518091D701881F06
:101A20008827881F9091D801292F220F97FB99278B
:101A300090F96091D901822B0C94860C40E0EDCF97
:101A400020E00C94C90B9091D70190FF48C0917889
:101A5000811128C092609093D701662351F0609164
:101A6000D7017091D8018091D9019091DA010E943B
:101A7000370B8091D701282F2E772230D9F410927E
:101A80006C01881F8827881F9091D801292F220F69
:101A900097FB992790F94091DA016091D901822B47
:101AA0000C94200D853210F09864D5CF8F73880F79
:101AB000982BD1CF982F96959F733EE3390F3F73A4
:101AC000373120F0263411F0283421F491E090933E
:101AD0006C01D7CF995D9F739A3098F6D0CF089557
:101AE00061E00C94230D8091D70186958F738F5FF1
:101AF000853208F081E00C94700D8091D7018695B5
:101B00008F73815009F484E20C94700DE7EDF1E0DD
:101B100080818160808386958F730C94700D60E066
:101B20000C94230D8091C90181608093C9010E94AA
:101B3000411C811104C00E94201C0E943D0B0E9488
:101B4000330B6093D7017093D8018093D9019093A0
:101B5000DA016E7761F40E943D0B0E94330B6093B3
:101B6000D7017093D8018093D9019093DA0181E075
:101B700080936C018091D70180FF04C086958F739C
:101B80000C948F0D08959091D70190FF0FC02E30C7
:101B900068F430E0F901EE0FFF1FE20FF31FE4528B
:101BA000FE4F8183608342830C94890B08951F93B9
:101BB000CF93DF9300D01F92CDB7DEB7122F2091C5
:101BC000D70120FF0BC09E012F5F3F4F0E94BE0A2E
:101BD000212F4B8169818A810E94C30D0F900F9044
:101BE0000F90DF91CF911F910895E7EDF1E0808193
:101BF0008E7F808360817181828193810E94370B07
:101C000010926C012FEF80E792E0215080409040CD
:101C1000E1F700C000000C94890B8091D70180FD92
:101C20000C94F50D0C94860DCF93C82F80916A010A
:101C300090916B010E942E1DEC2FF0E0E653FD4FBA
:101C4000E491E817190611F008F042C00E94221D25
:101C500090936B0180936A016091690170E090E05C
:101C600080E00E94962620E030E04FE753E40E9497
:101C7000B9252BED3FE049E450E40E94BF270E94C4
:101C80002C280E9433262BE43AE34EE25FE30E94C5
:101C90004C2520EF3BEF48ED52E40E94BF270E9405
:101CA0006526462F8091D701881F8827881F90912D
:101CB000D801292F220F97FB992790F96091D9011C
:101CC000822B0E94AF0B809169018F5F8093690125
:101CD000CF910895CF93C82F8091670190916801AB
:101CE0000E942E1DEC2FF0E0E953FD4FE491E81720
:101CF000190609F0E8F40E94221D90936801809370
:101D000067014091DA016091D9018091650190915C
:101D100066010E94AF0B809165019091660101966A
:101D200068E671E00E9495289093660180936501B2
:101D3000CF910895DF92EF92FF920F931F93CF936D
:101D4000DF93D82E80916301909164010E942E1D33
:101D5000ED2DE695F0E0EC53FD4FE491E817190600
:101D600009F0A8F50E94221D9093640180936301FD
:101D70000CED11E0D0E0C0E088E6E82EFF24F394FB
:101D800080916101909162018C0F9D1FB7010E94AB
:101D9000952898014091DA016091D9010E94BE0A0C
:101DA00069960D5F1F4FCE3581E0D80749F70E9435
:101DB000890B8091610190916201D0FE10C0019663
:101DC000B7010E9495289093620180936101DF9191
:101DD000CF911F910F91FF90EF90DF9008950197A1
:101DE000F2CFCF92DF92EF92FF920F931F93CF9398
:101DF000DF93C82FFF24FA9480FD02C0FF24F394E0
:101E000080915F01909160010E942E1DC695EC2F7C
:101E1000F0E0EF53FD4FE491E817190611F008F0D8
:101E200051C00E94221D9093600180935F010CEDD0
:101E300011E0D0E0C0E0F80111821082128294E03B
:101E4000C92ED12CE12C80915E018E0D87FD825F21
:101E5000082E000C990BC817D907E9F48091DA0114
:101E60008C9DA0018D9D500D11245595479555953C
:101E700047958091D701881F8827881F9091D801A6
:101E8000592F550F97FB992790F998016091D90127
:101E9000852B0E94BE0AEF0CF1E0CF1AD10899F60B
:101EA00021960D5F1F4FCE30D10529F60E94890B78
:101EB00080915E0191E0F91210C081110CC08DE09B
:101EC00080935E01DF91CF911F910F91FF90EF9072
:101ED000DF90CF9008958150F3CF90E00196BE013E
:101EE0000E94A928EDCF0F931F93CF93DF93C82FA4
:101EF00080915C0190915D010E942E1DEC2FF0E01D
:101F0000E254FD4FE491E817190611F008F052C0B1
:101F10000E94221D90935D0180935C01CCEDD1E085
:101F2000FE01118210821282339682E0E630F807B9
:101F3000C1F710E000E080915B01082E000C990BC6
:101F400008171907E4F180910201082E000C990B83
:101F500080179107A4F18091D701881F8827881FD7
:101F60009091D801592F550F97FB992790F99E0111
:101F70004091DA016091D901852B0E94BE0A0F5F62
:101F80001F4F23960E301105B1F60E94890B8091E8
:101F9000010190915B01980F90935B0120910201E8
:101FA000280F20930201121614F49D301CF0819525
:101FB00080930101DF91CF911F910F9108951982B4
:101FC00018821A82DCCFEF92FF920F931F93CF9368
:101FD000DF938091590190915A010E942E1D883EF5
:101FE0009340C8F10E94221D90935A018093590199
:101FF000C0915701D09158012196C170DD27D0932F
:102000005801C09357018CEDE82E81E0F82E10E0C6
:1020100008E7812F86958C0F9D2F911D8170992740
:1020200097014091DA016091D901FC010E9FC00136
:102030000F9F900D11240E94BE0A1F5FF3E0EF0E68
:10204000F11C1E3031F7DF91CF911F910F91FF905E
:10205000EF900C94890BDF91CF911F910F91FF901E
:10206000EF900895CF93DF9300D01F92CDB7DEB7E6
:1020700080915501909156010E942E1DE2EBF2E0F5
:102080002591349182179307B8F180915401811101
:102090000CC09E012F5F3F4F4FEF6FEF90E080E04D
:1020A0000E94BE0A8A81809354010E94221D90934F
:1020B00056018093550180915301813069F038F0C9
:1020C00040915401823009F040E080E003C08091EB
:1020D000540140E060E004C06091540140E080E0C1
:1020E0000E949E0B8091530190E0019663E070E0A6
:1020F0000E94A928809353010F900F900F90DF91B9
:10210000CF910895CF93DF93809151019091520127
:102110000E942E1D843F9140B8F10E94221D909391
:10212000520180935101D0E0C0E040914F015091A5
:1021300050012C2F6091D9018091D701382F331F86
:102140003327331F9091D801892F880F832B97FB5A
:10215000992790F9C730D105D4F4452BD1F040919F
:10216000DA010E94D70D2196CE30D105F1F60E94FA
:10217000890B80914F0190915001019681709927B0
:102180009093500180934F01DF91CF910895452B9B
:1021900031F340E0E6CF80916C018823D1F190913A
:1021A000D701892F86958F732EE3280F2F73243044
:1021B00018F482500C94140E2AE3280F2F73233046
:1021C00018F486500C946A0E27E3280F2F732630DC
:1021D00018F489500C949A0E21E3280F2F7326309F
:1021E00018F48F500C94F10E2BE2280F2F7323302C
:1021F00018F485510C94730F9E77903311F40C945E
:10220000E30F963411F40C943210983411F40C94BA
:10221000821008953BB1242F209523233BB1432BFB
:102220003FB7F894FC01680F791FE617F70711F420
:102230003FBF0895819198E04BB9000000C087FF2F
:102240002BB9880F000000C000C000C02BB900C02F
:102250009A9591F7EACF2AB1242B2AB99B01220F34
:10226000331F620F731F0E940A1187EC90E00197E1
:10227000F1F700C00000089548E00C942B119093F2
:102280007201809371010895E0917101F0917201E2
:10229000309721F00190F081E02D099480E00895BD
:1022A000E0917101F0917201309721F00280F38189
:1022B000E02D0994089520916F0130917001281745
:1022C000390771F09093700180936F01E091710173
:1022D000F0917201309721F00680F781E02D09948A
:1022E000089520916D0130916E012817390771F022
:1022F00090936E0180936D01E0917101F0917201F4
:10230000309721F00084F185E02D099408950C9414
:102310002F0481E008950E94191D85B7806885BF4C
:1023200085B7806885BF0E94AC020E948F1D0C9407
:10233000920DBF92CF92DF92EF92FF920F931F9375
:10234000CF93DF93CDB7DEB72A970FB6F894DEBFF1
:102350000FBECDBF0E94C2030E948911882309F4D9
:102360006FC084E7C82E81E0D82E10E000E0B02EC8
:10237000802F0E940104E82EF601F1906F01F816FB
:1023800009F458C08091C90181FD0E94070490E0C2
:1023900080E0FE242F2D30E0482FB901082E02C026
:1023A000759567950A94E2F760FF3FC08E83BF8200
:1023B00081E090E06C0102C0CC0CDD1C4A95E2F794
:1023C0002E2D30E02C213D21232B09F480E088873D
:1023D0000E94221D8160782F9A8789874E815F81B4
:1023E00068858A850E944112F801EC58FE4F808171
:1023F0008C2580830E94441190917301891789F183
:102400000E944411809373012A960FB6F894DEBFA0
:102410000FBECDBFDF91CF911F910F91FF90EF9035
:10242000DF90CF90BF900C945005019687309105B6
:1024300009F0B2CF0F5F1F4F0830110509F097CF99
:102440008FEF89838A831B820E94221D8160782FEF
:102450009D838C8349815A816B818D810E944112B9
:10246000C9CF2A960FB6F894DEBF0FBECDBFDF915D
:10247000CF911F910F91FF90EF90DF90CF90BF9081
:102480000895CF93DF93CDB7DEB72B970FB6F894AF
:10249000DEBF0FBECDBF4F83588769877A878B8792
:1024A0001E821D8285E0FE013796DE0111960190A5
:1024B0000D928A95E1F749815A816B817C818D81EA
:1024C0009E812B960FB6F894DEBF0FBECDBFDF9175
:1024D000CF910C94EE18FC01808191810C945D1BCE
:1024E000CF93C82F882309F4D4C08238C1F40E9446
:1024F000441181FDCEC089E30E946A1B0E94AE1B7D
:102500002FEF81EE94E0215080409040E1F700C031
:10251000000089E30E94711BCF910C94AE1B83389D
:10252000A1F40E94441180FDB4C083E50E946A1B9F
:102530000E94AE1B2FEF81EE94E02150804090402E
:10254000E1F700C0000083E5E5CF8438A1F40E94E4
:10255000441182FD9EC087E40E946A1B0E94AE1B4C
:102560002FEF81EE94E0215080409040E1F700C0D1
:10257000000087E4CFCF8CEF8C0F813A48F48C2F8A
:102580000E94451E811185C08C2F0E946A1BC4CFFA
:1025900080E28C0F883048F4C77081E001C0880F5A
:1025A000CA95EAF70E94E41BB7CF8BE58C0F833006
:1025B00068F481E890E0C53A31F083E890E0C63AEB
:1025C00011F482E890E0CF910C945B1188E58C0FB8
:1025D000853108F05EC082EE90E0C83A09F456C03A
:1025E00089EE90E0C93A09F451C08AEE90E0CA3A07
:1025F00009F44CC085EB90E0CB3A09F447C086EB78
:1026000090E0CC3A09F442C083EB90E0CB3BF1F18F
:1026100084EB90E0CC3BD1F187EB90E0CD3AB1F187
:102620008CEC90E0C03B91F18DEC90E0CE3A71F1F2
:1026300083E891E0CF3A51F18AE891E0C13B31F172
:1026400082E991E0C23B11F184E991E0C33BF1F0F2
:1026500081E292E0C43BD1F083E292E0C53BB1F06D
:1026600084E292E0C63B91F085E292E0C73B71F0D4
:1026700086E292E0C83B51F087E292E0C93B31F03C
:1026800090E080E0CA3B11F48AE292E0CF910C9492
:102690007111CF910895882309F44BC0823871F4E9
:1026A0000E94441181FF45C089E30E946A1B0E9479
:1026B000AE1B89E30E94711B0C94AE1B833859F446
:1026C0000E94441180FF35C083E50E946A1B0E946E
:1026D000AE1B83E5EFCF843859F40E94441182FF8A
:1026E00028C087E40E946A1B0E94AE1B87E4E2CFE9
:1026F0009CEF980F913AF0F290E2980F983050F4D6
:10270000877091E001C0990F8A95EAF7892F0E949E
:10271000EA1BD2CF9BE5980F933020F490E080E045
:102720000C945B11885A853120F490E080E00C9481
:1027300071110895882321F00E94E41B0C94AE1BB4
:102740000895882321F00E94EA1B0C94AE1B089583
:102750008F929F92AF92BF92DF92EF92FF920F9370
:102760001F93CF93DF937C01D62FC72FFC010581E8
:1027700002950F70128111110E94031C0E94A71B69
:10278000D82E882371F0112331F180E28D0F88302B
:1027900010F182E00E94911B0E94A71B91E0D82EAD
:1027A000D926BC2EB2949FE0B922EB2DF0E0E55281
:1027B000FC4E0C94BD28ED13ED133D143D14841410
:1027C0008B148B148B14AC148B1447154715D1152F
:1027D0008B148B14DA15D12CE4CF0C2F0F70C07F23
:1027E00011F00295007F1123A9F0002359F080E237
:1027F0008D0F883010F0D11109C0802F0E94E41B8A
:102800000E94AE1B8D2F0E94701214C0802F0E9458
:10281000F51BF6CF8D2F0E944B13002359F080E259
:102820008D0F883010F0D11124C0802F0E94EA1B38
:102830000E94AE1BDD2009F4C4C10E94841B80FDF0
:10284000C0C1F70112820E947E1B0E947F1AC7013D
:102850000E94ED150E947E1BDF91CF911F910F9179
:10286000FF90EF90DF90BF90AF909F908F900C946F
:10287000A01A802F0E94FB1BDBCFFC2FFF70BF2E06
:10288000C07FC03219F0B29480EFB822DD2369F026
:10289000D13049F1112391F1002351F1F7018581E4
:1028A00080FFB0CF8F70858323C0112381F0011189
:1028B00006C00E941D1C8B290E949A13BBCF0130B9
:1028C000C1F70E941D1C8B290E94171CB3CF011158
:1028D00006C00E941A1C8B2D0E94A113ABCF0130A1
:1028E00009F4A8CFF6CF112329F0063008F0A2CFC3
:1028F0008B2DE2CF053008F09DCFEDCF002359F3AB
:102900008D2F0E944B1396CF8C2F869586958370C2
:1029100079F08130B9F098E0B91609F459C0B916C8
:1029200008F488CF86EF8B0D823008F451C082CF37
:102930008D2F9C2F9370111102C090E080E00E94B7
:102940005B1178CF8D2F9C2F9370111102C090E0F6
:1029500080E00E9471116ECF8C2F837009F04BC004
:10296000111136C02D2F229526952770220F220F88
:102970006D2F6F70862E912CB12CA12C022E04C0CD
:10298000880C991CAA1CBB1C0A94D2F760E070E06A
:10299000CB01D4FF0FC06FE070E080E090E004C096
:1029A000660F771F881F991F2A95D2F7609570953B
:1029B00080959095C695C695C370C23071F0A0F40D
:1029C000682979298A299B29C13091F00E94311AFE
:1029D0000E9444110E9450052DCF682979298A2927
:1029E0009B290E94431AF4CF0E94311AC501B401F9
:1029F0000E941F1AEDCF8695112311F08C2F817044
:102A0000882331F32D2F229526952770220F220F30
:102A10006D2F6F70862E912CB12CA12C022E04C02C
:102A2000880C991CAA1CBB1C0A94D2F760E070E0C9
:102A3000CB01D4FF0FC06FE070E080E090E004C0F5
:102A4000660F771F881F991F2A95D2F7609570959A
:102A500080959095C695C695C370C23051F080F4AC
:102A6000682979298A299B29C13071F00E94F61AB8
:102A7000AFCF682979298A299B290E94081BA8CFF2
:102A80000E94F61AC501B4010E94E41AA1CFE0E247
:102A9000ED0FE53108F066C0F0E0EF5AFA4E0C9405
:102AA000BD286615661566156615661566156615E4
:102AB000661566156615661566156615661566153E
:102AC0006615771585158C1593159D15DF708C2F60
:102AD0008F71112331F00E947F1A8D2F0E949A135B
:102AE0001ACF0E94A01A8D2F0E94A11314CF112378
:102AF00041F0053008F00FCF8C2F8F710E94C31A60
:102B00000ACF063008F007CFF7CF8C2F8F71112333
:102B100039F00E947F1AFFCE8C2F8F711123C9F3D9
:102B20000E94A01AF8CE112329F08C2F8F710E94D9
:102B30006A1AF1CE0E94651AEECE112349F0CF71C8
:102B40008C2F0E947F1A63E08C2F0E94881BE3CE9B
:102B500081E00E94911B023008F4DDCE82E00E94E9
:102B6000911BD9CE112349F0002321F08D2F0E9413
:102B70007012D1CE8C2F8F71CCCF002379F0D93346
:102B800049F4FFEF27EE83E0F15020408040E1F769
:102B900000C000008D2F0E944B13BDCE8C2F8F7173
:102BA000BFCF4C2F4F706D2FC7010E9407080E94A6
:102BB000971940CE4C2F4F706D2FC7010E940A0805
:102BC00039CEDF91CF911F910F91FF90EF90DF9061
:102BD000BF90AF909F908F9008950F931F93CF93C6
:102BE000DF93EC01988189812B813C81232B39F083
:102BF0008F3F19F481E09F3F19F080E001C081E030
:102C000080FD17C0CE010E946805882391F068817D
:102C100079818A810E94671B8C010E941A1B0E9485
:102C20001C1AB801CE01DF91CF911F910F910C9426
:102C3000A813DF91CF911F910F9108950E94031C5B
:102C40000E94141C0E94781B0E94AE1B90E080E042
:102C50000E945B1190E080E00C9471110E94F21BC5
:102C60000C941E160E945D1BE92FE295EF70E25056
:102C7000EE30E0F4F0E0E15CF94E0C94BD284D1626
:102C80004D165616561658165616561656164D16F4
:102C90004D165D16561656165D16803F19F020F437
:102CA000803E20F481E00895843FE1F380E00895C0
:102CB000803EC0F3813FD1F7F5CF93FB882780F9A1
:102CC0000895CF93DF9300D000D01F92CDB7DEB729
:102CD0000F900F900F900F900F90DF91CF9108956C
:102CE000CF93DF9300D000D000D0CDB7DEB72696CB
:102CF0000FB6F894DEBF0FBECDBFDF91CF91089520
:102D00001F93CF93DF93C0917C0116E080917D01EA
:102D10008C1304C0DF91CF911F910895D0E01C9FC8
:102D2000F0011D9FF00D1124E258FE4F40815181AA
:102D300062817381848195810E9470162196C7708B
:102D4000E5CF4091AE015091AF016091B00170911B
:102D5000B1018091B2019091B3010C9470161F9350
:102D6000CF93DF938091B301807FD1F48091B00144
:102D70008823B1F080917C01D0917D01B091AE01AA
:102D8000C091AF014091B1015091B201A1E0BF3FAC
:102D900009F0A0E0BA016095709516E0D81304C060
:102DA000DF91CF911F91089521E04115510521F048
:102DB0002A2FCF3F09F020E090E020FD38C0189F77
:102DC000F001199FF00D1124E258FE4F21812C13C0
:102DD0002EC020812B132BC02281211128C02381DA
:102DE00034812417350700F1241B350B283C3105AD
:102DF000F0F42091B3012F7020612093B30126E0FD
:102E0000289FF001299FF00D1124ED57FE4F80817E
:102E10008F70806180838EEA91E00E94ED15DF91D2
:102E2000CF911F910C948016260F371FDFCF01968C
:102E30008770B4CFAF92BF92CF92DF92EF92FF92A2
:102E40000F931F93CF93DF93CDB7DEB761970FB684
:102E5000F894DEBF0FBECDBF8C0185E0F801DE0126
:102E60001D9601900D928A95E1F7D8014C9111962B
:102E70005C9111971296EC903091AE016091AF0188
:102E80008091B1019091B20121E0009731F06F3F44
:102E900019F421E03F3F09F020E0B22FB170BB2EC2
:102EA00020FD80C1F801C380D480A090B001AA2089
:102EB00009F427C1C816D906D0F1D601A81BB90B51
:102EC000CD01FF24F394883C910508F0F12C80910A
:102ED000B301982F907FFF2009F4CEC0911187C0D5
:102EE000FE2C651329C0341327C0E11025C08F7054
:102EF00080618093B3010E94A1168EEA91E00E9446
:102F0000ED158091B301F80185838F2D61960FB681
:102F1000F894DEBF0FBECDBFDF91CF911F910F910F
:102F2000FF90EF90DF90CF90BF90AF900895809585
:102F300090958C0D9D1DC5CF81E0CD2831F05F3F70
:102F400019F481E04F3F09F080E080FD24C081E06A
:102F50008E25F82FF170DF2E80FF3FC080917C011D
:102F600020917D0136E0821318C04D875E878D85E4
:102F70009E850E945D1B292F22952F70223008F11B
:102F8000243030F59F7009F1D80115969C91907FFF
:102F9000E1F4FB2CBACF80E0DCCF90E0389FF00169
:102FA000399FF00D1124E258FE4F6181561306C07F
:102FB0006081461303C062816E110FC00196877055
:102FC000D2CF9F7011F0882321F3805E883008F300
:102FD000C8010E94ED15BD2CDCCFEE2009F495CF81
:102FE0008091B30181608093B301F12C8ECF651382
:102FF00014C0341312C0E11010C0F8018583C80159
:103000000E94ED1586E0F801AEEAB1E001900D9264
:103010008A95E1F70E94A11678CF4D875E878D854E
:103020009E850E943216882319F1EE2009F18091C5
:10303000B301803270F02091AE013091AF0138873A
:103040002F831986DB86CA868C87CE0107960E945D
:10305000ED1586E0F801AEEAB1E001900D928A9597
:10306000E1F70E94AF160E94A116FF24F3944DCF02
:10307000C8010E94ED15F9CF911113C07C2DD98A9A
:10308000C88A6E2D89890E9461168EEA91E00E949D
:10309000ED1586E0EEEAF1E0DF011D928A95E9F791
:1030A000B9CF651312C0341310C0E1100EC0F8017F
:1030B0008583C8010E94ED15EEEAF1E086E0DF01AC
:1030C0001D928A95E9F7FA2C20CF4D875E878D8572
:1030D0009E850E943216882359F2EE2049F2809193
:1030E000B301803208F4B5CF2091AE013091AF0129
:1030F0003A8329831B82DD82CC828E83CE010196A6
:10310000A6CFC816D90638F1F601E81BF90BCF0196
:10311000F12C883C910508F03DC0FE2CEE2009F40E
:10312000A7CF651326C0341324C08091B30180FD5E
:1031300017C0982F907FA1F0D80115968C93159702
:10314000903F09F45CCF982F907F905F8F70892B10
:1031500015968C9354CF809590958C0D9D1DD8CF4E
:1031600086E0F801AEEAB1E001900D928A95E1F7B0
:10317000CCCE4D875E878D859E850E94321681114B
:1031800068CF8091B30181608093B301C8010E9430
:10319000ED15BBCE7C2DD98AC88A6E2D89890E94F7
:1031A000611677CFEE2009F463CF4D875E878D855A
:1031B0009E850E943216F82E882309F459CF86E0A6
:1031C000F801AEEAB1E001900D928A95E1F78EEA3E
:1031D00091E00E946B120E94AF161CCF1F93CF93F9
:1031E000DF93CDB7DEB72C970FB6F894DEBF0FBED6
:1031F000CDBF4F83588769877A878B879C87CE019D
:1032000007960E941A17882309F442C09F81888577
:103210002A853B85232B39F08F3F19F481E09F3FAE
:1032200019F080E001C081E080FD08C04F81588521
:1032300069857A858B859C850E94701616E0809141
:103240007C0190917D01891709F467C0819FC001BD
:10325000112482589E4F0E941A17882309F45DC0DA
:10326000E0917C011E9FF0011124E258FE4F408145
:10327000518162817381848195810E947016809151
:103280007C0190E001968770992780937C01D7CFCD
:1032900086E0FE013796DE01119601900D928A9527
:1032A000E1F79F8188852A853B85232B39F08F3F65
:1032B00019F481E09F3F19F080E001C081E080FDBA
:1032C000BDCF20917D0130E0C9010196877099271B
:1032D00040917C014817190699F096E0929FD00121
:1032E000939FB00D1124A258BE4FFE01319601905C
:1032F0000D929A95E1F780937D010E9480169ECFF2
:103300000E942E1610927D0110927C0186E0EEEA5A
:10331000F1E0DF011D928A95E9F72C960FB6F8943B
:10332000DEBF0FBECDBFDF91CF911F910895EF9209
:10333000FF920F931F93CF93DF938C01892B81F022
:10334000F12CEE24E394E8012196F801849184376E
:1033500070F4843008F05FC08130B1F08230A1F1A8
:10336000DF91CF911F910F91FF90EF9008958537D6
:1033700009F44CC008F43DC09CE7980F903780F7E3
:103380008F770E944B1349C00E5F1F4FFE0184913F
:1033900090E2980F983060F48770FE2D01C0FF0F07
:1033A0008A95EAF78F2F0E94061C0E94AE1B02C06E
:1033B0000E9470128F2D815030F2EFE9FFE03197BB
:1033C000F1F700C00000F7CF0E5F1F4FFE018491A0
:1033D00090E2980F983050F48770FE2D01C0FF0FD7
:1033E0008A95EAF78F2F0E940C1CDFCF0E944B13A7
:1033F000E1CF0E5F1F4FFE01C491C150D8F28FE99B
:103400009FE00197F1F700C00000F7CF0E5F1F4F5C
:10341000FE01F490CFCF0E9470128E01CBCF0895A1
:103420000E940F1A6093B8017093B9018093BA019A
:103430009093BB010C941E1608950C94101A0F93D0
:103440001F930091B8011091B9012091BA013091F8
:10345000BB01602B712B822B932B1F910F910C942E
:10346000101A0F931F930091B8011091B901209188
:10347000BA013091BB0160237123822393231F91F2
:103480000F910C94101A0F931F930091B801109193
:10349000B9012091BA013091BB01602771278227C1
:1034A00093271F910F910C94101A0C940F1A0C94DF
:1034B000551A0E94571A6093B4017093B501809316
:1034C000B6019093B7010C941E1660E070E0CB013A
:1034D0000C94591A0F931F9341E050E060E070E0A4
:1034E0008A019B0104C0000F111F221F331F8A9500
:1034F000D2F7C901B8011F910F910C94591A0F937B
:103500001F9341E050E060E070E004C0440F551F9D
:10351000661F771F8A95D2F78091B4019091B5010B
:10352000A091B601B091B7018A019B01082B192B1C
:103530002A2B3B2BC901B8011F910F910C94591AEA
:103540000F931F9341E050E060E070E004C0440F2F
:10355000551F661F771F8A95D2F7CB01BA01609578
:103560007095809590950091B4011091B5012091CE
:10357000B6013091B70160237123822393231F91F9
:103580000F910C94591A0F931F9341E050E060E0A3
:1035900070E004C0440F551F661F771F8A95D2F74D
:1035A0008091B4019091B501A091B601B091B7019D
:1035B0008A019B01082719272A273B27C901B8013F
:1035C0001F910F910C94591A0F931F930091B401FE
:1035D0001091B5012091B6013091B701602B712B8C
:1035E000822B932B1F910F910C94591A0F931F93B9
:1035F0000091B4011091B5012091B6013091B7014D
:1036000060237123822393231F910F910C94591AE5
:103610000F931F930091B4011091B5012091B60151
:103620003091B70160277127822793271F910F914F
:103630000C94591A0895BF92CF92DF92EF92FF92A5
:103640000F931F93CF93DF938C01C090B401D09060
:10365000B501E090B601F090B7018091B80190916A
:10366000B901A091BA01B091BB01C82AD92AEA2AAE
:10367000FB2ACFE1D0E0BC2ED701C6010C2E04C03E
:10368000B695A795979587950A94D2F780FD0EC0B9
:10369000219788F7B12C8B2DDF91CF911F910F913E
:1036A000FF90EF90DF90CF90BF900895B8018C2FDE
:1036B0000E942708019761F3EECFCF93DF93EC01CF
:1036C0000E941B1BBE01DF91CF910C942708CB01F8
:1036D0000C945D1B682F80910301909104010C9460
:1036E000911C682F80910301909104010C94931C0C
:1036F00080910301909104010C94951C8091BC0170
:1037000085958595859508958091BC01877008956C
:1037100098E0899F90011124622B6093BC010C9466
:103720007F1A9091BC01809589238093BC01282F3A
:10373000277061F4282F082E000C330B9217130604
:1037400029F08595859585950C94A01A08959091FA
:10375000BC01977081E009F480E00895E0910301D5
:10376000F09104018091C8018083E0910301F09100
:10377000040180819091C701892B8083E09103012E
:10378000F091040180819091C601892B80839091F2
:10379000BD01992381F0E0910301F0910401808142
:1037A000892B808380910301909104010E945D1C0C
:1037B00081111092BD0180910301909104010C943C
:1037C00050118091C80108959091C801892B809370
:1037D000C8010895982F90958091C80189238093FE
:1037E000C80108951092C80108959091C701892BCE
:1037F0008093C7010895982F90958091C7018923E0
:103800008093C70108951092C70108959091C60151
:10381000892B8093C6010895982F90958091C601B9
:1038200089238093C60108951092C601089580935C
:10383000BD0108951092BD0108958091BD010895C4
:103840006DEE7EEF90E080E00E94F52860E082E07F
:1038500090E00E94D72860E083E090E00E94D728A3
:1038600060E084E090E00E94D72860E085E090E08E
:103870000E94D72840E050E0BA0188E090E00C9424
:10388000E92890E080E00E94D12821E08D3E9E4F03
:1038900009F020E0822F089582E090E00C94C32884
:1038A00083E090E00C94C32884E090E00C94C3285B
:1038B000682F84E090E00C94D728FC0131969C019D
:1038C000285F3F4F80E0919191118F5FE217F307DE
:1038D000D1F708959C01FC0132969FEF80E0419161
:1038E000461751F09F3F19F4411101C0982F8F5F87
:1038F0008630A9F79F3F09F40895290F311D97FDE0
:103900003A95F90162830895FC0132960896219157
:10391000261303C0DF0111971C92E817F907B9F7C6
:1039200008950C946A1C0C94841CFC011182128270
:1039300013821482158216821782089508950895BD
:103940000C949F1C80911002843049F11092CA019E
:1039500088E190E020E40FB6F894A8958093600089
:103960000FBE2093600080E00E9450050E94A01CC2
:1039700083B7817F846083BF83B7816083BF78947E
:10398000889583B78E7F83BF0FB6F894A8958091F2
:103990006000886180936000109260000FBE0895FF
:1039A0000895CF930E949E1C0E94C2030E94D01CC7
:1039B000C0E08C2F0E940104811105C0CF5FC83088
:1039C000C1F7CF91089581E0FCCF08950C94E51CD8
:1039D0000E942E160E9444110E9450050C94E61C71
:1039E0001F920F920FB60F9211248F939F93AF9354
:1039F000BF938091CA01811113C0809106029091FA
:103A00000702A0910802B09109024196A11DB11DC3
:103A10008093060290930702A0930802B0930902D4
:103A2000BF91AF919F918F910F900FBE0F901F90FC
:103A3000189582E084BD93E095BD9AEF97BD809381
:103A40006E0008952FB7F8948091060290910702B6
:103A5000A0910802B09109022FBF0895CF92DF9282
:103A6000EF92FF920F931F932FB7F89440910602A5
:103A70005091070260910802709109022FBF6A01FC
:103A80007B01EE24FF248C0130E020E0C016D1063B
:103A9000E206F30650F0481B590BCA011F910F9123
:103AA000FF90EF90DF90CF90089541505109F3CFF0
:103AB00078941F920F920FB60F9211248F939F93B9
:103AC000AF93BF938091060290910702A0910802E4
:103AD000B09109020196A11DB11D80930602909339
:103AE0000702A0930802B0930902BF91AF919F9182
:103AF0008F910F900FBE0F901F90189587E797E753
:103B0000909301088093000888E19AE00FB6F8943A
:103B1000A895809360000FBE90936000FFCF0E9435
:103B2000411C811102C00E94201C0E944C1C8093E9
:103B3000C9010E94541C90E090930B0280930A02EA
:103B40000E94501C682F70E090E080E00C941D1AD9
:103B50000F931F9341E050E060E070E08A019B0109
:103B600004C0000F111F221F331F8A95D2F7C9010D
:103B7000B8010E941D1A1F910F910C942E168732C6
:103B8000A8F58E3108F07BC08E3009F46DC058F472
:103B9000873009F45AC08B3009F44BC0863009F4E1
:103BA0004AC080E00895863109F443C068F480314A
:103BB000C1F79091C901892F877F93FF8860809317
:103BC000C90183FD0FC035C0893199F18B3149F7A7
:103BD0009091C901892F8D7F91FF82608093C901E7
:103BE00081FF27C08091C90181603BC0883309F102
:103BF00050F4893221F0853311F0873291F680E05C
:103C00000E94A81D16C08334D1F320F48A3348F2F1
:103C10008953F6CF883429F60E942E162FEF83EDB4
:103C200090E3215080409040E1F700C000000E94E6
:103C30007E1D81E008958091C901817F8E7F8093F0
:103C4000C90181E08093CB0108959091C901892F2A
:103C50008E7F90FF81608093C90180FDEACF897FCC
:103C6000877F8093C901E5CF9091C901892F8B7F10
:103C700092FF84608093C90182FDB4CFDACF8D5169
:103C8000BFCF80E008950C94411ECF93C82F809140
:103C9000CB01882331F08130B1F01092CB0180E06C
:103CA00010C0E0910301F091040180818232B9F7E4
:103CB0008C2F0E94411E811119C08C2F0E94BF1DA4
:103CC0008170CF910895E0910301F091040180810A
:103CD000823271F38C2F0E94431E81110EC0C431B9
:103CE00071F038F4CB3049F080E0EACF81E090E029
:103CF000E7CFC93221F0C833B9F781E0E1CF1092A4
:103D0000CB01F2CF8091D401089508950F931F93B2
:103D1000CF93DF9300D01F92CDB7DEB78C010E9406
:103D20009D20823011F0843021F583E089831B834C
:103D30000A8382E08093E9008FEF9091E800815040
:103D400095FD06C095ED9A95F1F700008111F5CF2C
:103D50008091E80085FF0DC050E040E063E070E036
:103D6000CE0101960E94BA208091E8008E77809360
:103D7000E8000F900F900F90DF91CF911F910F915E
:103D80000895CF93DF9300D01F92CDB7DEB7209177
:103D90001002243029F522E02983805891099B8361
:103DA0008A832093E9008FEF9091E800815095FD80
:103DB00006C095ED9A95F1F700008111F5CF80913D
:103DC000E80085FF0DC050E040E063E070E0CE0108
:103DD00001960E94BA208091E8008E778093E800D7
:103DE0000F900F900F90DF91CF910895CF93DF93B5
:103DF000EC010E949D20823011F0843039F581E081
:103E00008093E9008FEF9091E800815095FD06C006
:103E100095ED9A95F1F700008111F5CF8091E800BA
:103E200085FF14C050E040E068E070E0CE010E94E1
:103E3000BA208091E8008E778093E80088E0FE0148
:103E4000ACECB1E001900D928A95E1F7DF91CF9152
:103E5000089580910F02811109C00E944A220E9498
:103E6000A7228091E20084608093E200089510927E
:103E70000F020895089508950C94E81C42E061EC47
:103E800081E00E94C82142E061EC82E00C94C821EC
:103E900080911202833009F452C030F4813059F11C
:103EA000823009F48EC008958A3009F47AC08B30CC
:103EB00009F460C0893009F041C08091110281325B
:103EC000E9F58091150290911602892BB9F5809140
:103ED000E800877F8093E8008091E80082FF2AC095
:103EE0008091F1008093D4018091E8008B778093DA
:103EF000E8000C94FC2180911102813AF9F4809140
:103F0000E800877F8093E800809115029091160267
:103F1000892B61F468E08CEC91E070E00E9409214B
:103F20008091E8008B778093E800089560E090E04E
:103F300080E0F3CF809110028111CECF089580915F
:103F40001102813AD9F78091150290911602892BBE
:103F5000A9F78091E800877F8093E8008091E800CE
:103F600080FFFCCF80910F018093F1008091E800E9
:103F70008E77BDCF80911102813201F780911502B9
:103F800090911602892BD1F68091E800877F80936B
:103F9000E8000E94FC218091130280930F010C9491
:103FA0002E1680911102813249F68091E800877FB8
:103FB0008093E8000E94FC21809114028093D50137
:103FC000089580911102813A09F0B8CF8091E800FC
:103FD000877F8093E8008091E80080FFFCCF80918C
:103FE000D501C2CF84B7877F84BF0FB6F894A89558
:103FF00080916000886180936000109260000FBE25
:1040000080E880936100109261000E9487110E94F5
:104010004A220E94A7228091E20084608093E200FD
:1040200078940E9430250E948B1185E091E00E94D7
:104030003F1180911002853029F00E9499110E9451
:10404000CB10F7CF0E94A21C80910E02882389F327
:104050000E94D11C882369F30E94A420EACF0C940B
:104060003120292F33272330310571F158F42130C5
:104070003105E9F02230310511F190E080E030E0C7
:1040800020E019C021323105C1F122323105A9F7F2
:1040900080E490E02DE734E06115710561F086E37E
:1040A00090E027E434E06130710529F0E6CF82E149
:1040B00090E025E334E0FA013183208308958BE317
:1040C00090E02AEF33E0F7CF99278130910579F01E
:1040D00040F08230910571F0039779F6EEECF3E051
:1040E00002C0E6EFF3E0849190E09F01E4CFE6EEBA
:1040F000F3E0F9CFE4EDF3E0F6CF89E090E02CE0D7
:1041000034E061157105B9F289E090E025E234E010
:104110006130710581F2B1CF0895CF93C82F0E940D
:104120008C20C093D601CF910895809110028430E5
:1041300011F081E0089582E008958091D601811107
:1041400002C00C949520089580E189BD82E189BD6B
:1041500009B400FEFDCF8091D8008F7D8093D800F8
:104160008091E00082608093E0008091E00081FD1A
:10417000FCCF0895AF92BF92CF92DF92FF920F9340
:104180001F93CF93DF936C01EB018A010E941B22E6
:10419000F82E811123C00115110539F0F801808135
:1041A0009181C81BD90BC80ED91EB12CA12C209708
:1041B000A9F08091E80085FD22C08091E8008E770B
:1041C0008093E80001151105A1F0F801808191812B
:1041D000A80EB91EB182A08285E0F82E8F2DDF9146
:1041E000CF911F910F91FF90DF90CF90BF90AF9034
:1041F00008950E941B228823D1F2F82EEFCFF601FA
:1042000081916F018093F1002197FFEFAF1ABF0AF0
:10421000CECFFC0180911702909118028617970764
:10422000A0F06115710529F49091E8009E779093B4
:10423000E80090E06115710551F4911108C080917A
:10424000E80082FF35C080E00895BC01F2CF809184
:1042500010028823C9F18530C9F18091E80083FDFF
:1042600031C08091E80082FDEACF8091E80080FFB4
:10427000E1CF2091F3008091F200322F282F6115B9
:10428000710519F02830310558F091E028303105DA
:1042900009F090E02091E8002E772093E800CACF43
:1042A00081918093F100615071092F5F3F4FE7CFFB
:1042B00080911002882341F0853041F08091E80020
:1042C00083FFBDCF81E0089582E0089583E00895E3
:1042D000FC01809117029091180286179707A0F0B1
:1042E0006115710529F48091E8008E778093E800CC
:1042F00090E06115710551F4911108C08091E800BA
:1043000082FF36C080E00895BC01F2CF8091100298
:104310008823D1F18530D1F18091E80083FD32C04E
:104320008091E80082FDEACF8091E80080FFE1CF34
:104330002091F3008091F200322F282F6115710532
:1043400019F02830310558F091E02830310509F096
:1043500090E08091E8008E778093E800CACF849146
:104360008093F1003196615071092F5F3F4FE6CF86
:1043700080911002882341F0853041F08091E8005F
:1043800083FFBCCF81E0089582E0089583E0089523
:10439000982F973028F08F708093E90081E008957E
:1043A0009093E900242F762F50E0981731F0709108
:1043B000EC002091ED005091F00021FD02C09F5FC4
:1043C000E8CF3091EB003E7F3093EB003091ED0071
:1043D0003D7F3093ED003091EB0031603093EB0086
:1043E0007093EC002093ED005093F0002091EE00CC
:1043F00027FDE5CF80E008958091110287FF13C06B
:104400008091E80082FF06C08091E8008B7780935E
:10441000E80004C0809110028111F2CF08958091CC
:1044200010028823D9F38091E80080FFF8CF8091B3
:10443000E8008E77ECCF2091E4003091E50085E62E
:104440009091EC0090FF06C09091E80090FF06C0AC
:1044500080E008959091E80092FDFACF90911002CB
:10446000992391F0953091F09091EB0095FD10C05B
:104470004091E4005091E5002417350709F381507D
:104480009A01F1F684E0089582E0089583E00895AA
:1044900081E008950E94B8220E94C022E0EEF0E080
:1044A000808181608083E8EDF0E080818F77808378
:1044B00019BCA7EDB0E08C918E7F8C9380818F7EAC
:1044C000808310920F0208950F931F93CF93DF9371
:1044D0000E94B8220E94C022C8EDD0E088818F7768
:1044E000888388818068888388818F7D888319BCD0
:1044F0001092100210920C0210920E0210920D02F5
:1045000000EE10E0F80180818B7F808388818160DC
:10451000888342E060E080E00E94C821E1EEF0E0A4
:1045200080818E7F8083E2EEF0E0808181608083F5
:10453000808188608083F80180818E7F808388817C
:1045400080618883DF91CF911F910F910895E8EDED
:10455000F0E080818F7E8083E7EDF0E080818160F4
:10456000808384E082BF81E080930F020C946422F8
:10457000E8EDF0E080818E7F80831092E200089564
:104580001092DA001092E10008951F920F920FB678
:104590000F9211242F933F934F935F936F937F93C9
:1045A0008F939F93AF93BF93EF93FF938091E1001D
:1045B00082FF0BC08091E20082FF07C08091E10082
:1045C0008B7F8093E1000E942F258091DA0080FF8D
:1045D00019C08091D80080FF15C08091DA008E7FCD
:1045E0008093DA008091D90080FF94C080E189BD7A
:1045F00082E189BD09B400FEFDCF81E08093100205
:104600000E94291F8091E10080FF19C08091E20083
:1046100080FF15C08091E2008E7F8093E200809140
:10462000E20080618093E2008091D80080628093F4
:10463000D80019BC85E0809310020E943B1F809136
:10464000E10084FF29C08091E20084FF25C080E161
:1046500089BD82E189BD09B400FEFDCF8091D800FB
:104660008F7D8093D8008091E1008F7E8093E10060
:104670008091E2008F7E8093E2008091E200816071
:104680008093E20080910C02882309F449C084E001
:10469000809310020E943C1F8091E10083FF29C09B
:1046A0008091E20083FF25C08091E100877F8093A5
:1046B000E10082E08093100210920C028091E100F0
:1046C0008E7F8093E1008091E2008E7F8093E200F4
:1046D0008091E20080618093E20042E060E080E04F
:1046E0000E94C8218091F00088608093F0000E94B1
:1046F0003A1FFF91EF91BF91AF919F918F917F9161
:104700006F915F914F913F912F910F900FBE0F903E
:104710001F90189519BC109210020E94371F72CF7B
:104720008091E30087FD02C081E0B2CF83E0B0CF8B
:104730001F920F920FB60F9211242F933F934F9316
:104740005F936F937F938F939F93AF93BF93CF9319
:10475000EF93FF93C091E900CF708091EC0010922D
:10476000E9008091F000877F8093F00078940E94A8
:10477000D4231092E9008091F00088608093F000CB
:10478000C093E900FF91EF91CF91BF91AF919F91BD
:104790008F917F916F915F914F913F912F910F90EA
:1047A0000FBE0F901F9018951F93CF93DF93CDB737
:1047B000DEB7AA970FB6F894DEBF0FBECDBFE1E11A
:1047C000F2E08091F100819322E0E931F207C9F72C
:1047D0000E94481F8091E80083FF44C0809111022D
:1047E000909112029A3008F03DC0E92FF0E0E550B8
:1047F000FC4D0C94BD2805242B2432242B24322478
:104800008924AB24322402250F25803889F0823890
:1048100049F5809115028F70873020F58093E9006B
:104820008091EB0085FB882780F91092E90006C093
:1048300080910D0290910E02911182609091E8009A
:10484000977F9093E8008093F1001092F10080919F
:10485000E8008E772DC0282F2D7F21F48823D1F0FA
:10486000823059F18091E80083FF0AC08091E8000E
:10487000877F8093E8008091EB0080628093EB005B
:10488000AA960FB6F894DEBF0FBECDBFDF91CF91D1
:104890001F91089580911302813021F7933009F020
:1048A00080E080930E021092E9008091E800877FFB
:1048B0008093E8000E94FC21D5CF809113028111E2
:1048C000F2CF809115028F702FEF280F263050F60F
:1048D0008093E9002091EB0020FFE5CF933031F485
:1048E0008091EB0080628093EB00DDCF9091EB0034
:1048F00090619093EB0021E030E001C0220F8A9597
:10490000EAF72093EA001092EA008091EB008860B9
:10491000EACF8111A7CF109113021F778091E30096
:104920008078812B8093E3008091E800877F8093DB
:10493000E8000E94FC218091E80080FFFCCF80917C
:10494000E30080688093E30083E0111101C082E0FE
:104950008093100287CF8058823008F083CF8091F7
:104960001302909114028C3D23E09207A1F583E09D
:104970008A838AE289834FB7F894DE01139620E098
:104980003EE051E2E32FF0E050935700E49120FF26
:1049900003C0E295EF703F5FEF708E2F90E0EA303A
:1049A000C0F0C7968D939D932F5F243159F74FBF69
:1049B0008091E800877F8093E8006AE270E0CE0192
:1049C00001960E9409218091E8008B778093E8008E
:1049D00049CFC096E7CF6091150270911602AE01E3
:1049E0004F5F5F4F0E942F20BC01892B09F43ACF03
:1049F0009091E800977F9093E80089819A810E94C6
:104A00006821E1CF803809F02DCF8091E800877FC1
:104A10008093E80080910C028093F10018CF8111FF
:104A200021CF90911302923008F01CCF8091E800C2
:104A3000877F8093E80090930C020E94FC21809174
:104A40000C02882331F084E0809310020E943E1F04
:104A500009CF8091E30087FDF6CF81E0F5CF08957F
:104A6000CF9380911002882399F0C091E900CF7014
:104A70008091EC0080FD0EC080E0C82B1092E90010
:104A80008091E80083FD0E94D423CF70C093E90099
:104A9000CF91089580E8F1CF5058BB27AA270E94F4
:104AA00064250C940F270E94012738F00E940827E4
:104AB00020F039F49F3F19F426F40C94D7260EF415
:104AC000E095E7FB0C94D126E92F0E94202758F3AC
:104AD000BA17620773078407950720F079F4A6F5E3
:104AE0000C9442270EF4E0950B2EBA2FA02D0B014B
:104AF000B90190010C01CA01A0011124FF27591B23
:104B000099F0593F50F4503E68F11A16F040A22F28
:104B1000232F342F4427585FF3CF46953795279599
:104B2000A795F0405395C9F77EF41F16BA0B620B98
:104B3000730B840BBAF09150A1F0FF0FBB1F661FDF
:104B4000771F881FC2F70EC0BA0F621F731F841F22
:104B500048F4879577956795B795F7959E3F08F048
:104B6000B0CF9395880F08F09927EE0F979587950A
:104B700008950E94CD250C940F270E94082758F015
:104B80000E94012740F029F45F3F29F00C94D126C0
:104B900051110C9443270C94D7260E94202768F3C8
:104BA0009923B1F3552391F3951B550BBB27AA27E6
:104BB00062177307840738F09F5F5F4F220F331F20
:104BC000441FAA1FA9F335D00E2E3AF0E0E832D0E8
:104BD00091505040E695001CCAF72BD0FE2F29D0EB
:104BE000660F771F881FBB1F261737074807AB07BD
:104BF000B0E809F0BB0B802DBF01FF2793585F4F32
:104C00003AF09E3F510578F00C94D1260C9443273E
:104C10005F3FE4F3983ED4F3869577956795B79513
:104C2000F7959F5FC9F7880F911D9695879597F91E
:104C30000895E1E0660F771F881FBB1F6217730797
:104C40008407BA0720F0621B730B840BBA0BEE1FAC
:104C500088F7E095089529F416F00C94D1260C9469
:104C600042270C94D7260E942827A8F39638A0F74D
:104C700007F80F92E8942BE33AEA48EB5FE70E94CB
:104C8000D5270F920F920F924DB75EB70F920E94E9
:104C90008B27ECEAF0E00E94DA264F915F91EF91CA
:104CA000FF91E595EE1FFF1F49F0FE57E06844278E
:104CB000EE0F441FFA95E1F74195550B0E945527D9
:104CC0000F9007FE0C94492708950E94282788F02A
:104CD0009F5798F0B92F9927B751B0F0E1F0660FC0
:104CE000771F881F991F1AF0BA95C9F714C0B13001
:104CF00091F00E944227B1E008950C944227672F5B
:104D0000782F8827B85F39F0B93FCCF3869577952F
:104D10006795B395D9F73EF4909580957095619518
:104D20007F4F8F4F9F4F0895E89409C097FB3EF443
:104D300090958095709561957F4F8F4F9F4F9923E8
:104D4000A9F0F92F96E9BB279395F6958795779566
:104D50006795B795F111F8CFFAF4BB0F11F460FF26
:104D60001BC06F5F7F4F8F4F9F4F16C0882311F07E
:104D700096E911C0772321F09EE8872F762F05C092
:104D8000662371F096E8862F70E060E02AF09A952D
:104D9000660F771F881FDAF7880F9695879597F922
:104DA000089597F99F6780E870E060E008959FEFAD
:104DB00080EC0895DF93CF931F930F93FF92EF92B0
:104DC000DF927B018C01689406C0DA2EEF010E940D
:104DD000D227FE01E894A5912591359145915591F1
:104DE000A6F3EF010E946425FE019701A801DA9461
:104DF00069F7DF90EF90FF900F911F91CF91DF91B6
:104E0000089500240A941616170618060906089530
:104E100000240A9412161306140605060895092E96
:104E20000394000C11F4882352F0BB0F40F4BF2B05
:104E300011F460FF04C06F5F7F4F8F4F9F4F089545
:104E400057FD9058440F551F59F05F3F71F047953B
:104E5000880F97FB991F61F09F3F79F08795089520
:104E6000121613061406551FF2CF4695F1DF08C03F
:104E7000161617061806991FF1CF8695710561055C
:104E800008940895E894BB2766277727CB0197F904
:104E900008959B01AC0160E070E080E89FE30C9412
:104EA000B9250C94D1260C9434280E942827D8F3D5
:104EB0009923C9F3940F511DA3F39150504094F0DE
:104EC00059F0882332F0660F771F881F91505040A9
:104ED000C1F79E3F51052CF7880F911D9695879538
:104EE00097F908955F3FACF0983E9CF0BB278695FC
:104EF00077956795B79508F4B1609395C1F7BB0FA7
:104F000058F711F460FFE8CF6F5F7F4F8F4F9F4FCF
:104F1000E3CF0C944327FA01DC01AA0FBB1F9B01CE
:104F2000AC01BF5728F4222733274427507820C0EC
:104F3000B75190F4AB2F0024469537952795011C67
:104F4000A395D2F3002071F0220F331F441FB395B5
:104F5000DAF30ED00C944C2561307105A0E88A0775
:104F6000B94630F49B01AC016627772788279078F3
:104F7000309621F0208331834283538308950E9429
:104F8000D2270C940F270E94012738F00E9408278F
:104F900020F0952311F00C94D1260C94D7261124DF
:104FA0000C9443270E94202770F3959FC1F3950F1F
:104FB00050E0551F629FF001729FBB27F00DB11D9D
:104FC000639FAA27F00DB11DAA1F649F6627B00D2D
:104FD000A11D661F829F2227B00DA11D621F739F16
:104FE000B00DA11D621F839FA00D611D221F749F24
:104FF0003327A00D611D231F849F600D211D822F6B
:10500000762F6A2F11249F5750409AF0F1F0882391
:105010004AF0EE0FFF1FBB1F661F771F881F9150BE
:105020005040A9F79E3F510580F00C94D1260C9476
:1050300043275F3FE4F3983ED4F3869577956795D1
:10504000B795F795E7959F5FC1F7FE2B880F911DE8
:105050009695879597F908959F930E9444280F90FD
:1050600007FCEE5F0C946D289F3F31F0915020F4C7
:10507000879577956795B795880F911D9695879534
:1050800097F908950C94D7260E942827D8F3E8941E
:10509000E0E0BB279F57F0F02AED3FE049EC06C067
:1050A000EE0FBB0F661F771F881F28F0B23A62070A
:1050B0007307840728F0B25A620B730B840BE395D5
:1050C0009A9572F7803830F49A95BB0F661F771F58
:1050D000881FD2F790480C943628EF93E0FF07C062
:1050E000A2EA2AED3FE049EC5FEB0E9464250E94B2
:1050F0000F270F90039401FC9058E4EDF0E00C941E
:1051000081289F938F937F936F93FF93EF939B01DE
:10511000AC010E94BF27EF91FF910E94DA262F91E8
:105120003F914F915F910C94BF27AA1BBB1B51E18C
:1051300007C0AA1FBB1FA617B70710F0A61BB70B07
:10514000881F991F5A95A9F780959095BC01CD01AC
:10515000089597FB072E16F4009407D077FD09D029
:105160000E94952807FC05D03EF4909581959F4FAD
:105170000895709561957F4F0895EE0FFF1F05907C
:10518000F491E02D0994F999FECF92BD81BDF89A72
:10519000992780B50895A6E1B0E044E050E00C9472
:1051A000FD28A8E1B0E042E050E00C94FD28262F55
:1051B000F999FECF92BD81BDF89A019700B402160D
:1051C00039F01FBA20BD0FB6F894FA9AF99A0FBEBB
:1051D00008950396272F0E94D8280E94D728252FAC
:1051E0000E94D828242F0C94D8280196272F0E949B
:1051F000D8280C94D728DC01CB01FC01F999FECF0B
:1052000006C0F2BDE1BDF89A319600B40D9241504E
:0A5210005040B8F70895F894FFCF5E
:10521A00010102BE01821EF61E851EC11E861E01E6
:10522A00F5F6F731333236F497C634000000000041
:00000001FF
