:100000000C9439060C946D090C948B060C948B0699
:100010000C948B060C948B060C948B060C948B061C
:100020000C948B060C94A22F0C94912A0C94652BA3
:100030000C9465230C948B060C948B060C948B0605
:100040000C948B060C948B060C948B060C948B06EC
:100050000C948B060C94D7230C948B060C948B0673
:100060000C948B060C948B060C948B060C948B06CC
:100070000C948B060C948B060C948B060C948B06BC
:100080000C948B060C948B060C948B060C948B06AC
:100090000C948B060C948B060C948B060C948B069C
:1000A0000C948B060C948B060C948B0607634236DB
:1000B000B79BD8A71A39685618AEBAAB558C1D3CF9
:1000C000B7CC5763BD6DEDFD753EF6177231BF00BD
:1000D0000000803F05A84CCDB2D44EB93836A902F5
:1000E0000C50B9918688083CA6AAAA2ABE00000036
:1000F000803F0A002530313662003A200025303238
:1001000058000A722F632030313233343536373895
:10011000394142434445460A004B4C3A206B633A0E
:100120002025752C20636F6C3A2025752C20726F6A
:10013000773A2025752C20707265737365643A20B8
:1001400025750A006D61747269785F696E69745F04
:10015000757365723A20454E440A006D6174726988
:10016000785F696E69745F757365723A20424547BE
:10017000494E0A00290014001A0008001500170053
:1001800000002B0004001600070009000A00000010
:10019000E1001D001B000600190005000000E00042
:1001A000E300E20002512C00000000001C001800D7
:1001B0000C00120013004C002A000B000D000E0072
:1001C0000F0033000000280011000000100036006E
:1001D0003700E50001512C0000000000E400E600BB
:1001E0000351025135003A003B003C003D003E0007
:1001F00000001E001F00200021002200230000003C
:1002000001000100010001000100340000000100B4
:100210000100010001000100000000003F0040005B
:100220004100420043004400450024002500260010
:1002300027002D0000002E00380000002F003000A5
:100240003100010001000100000000000100010078
:10025000010001003502810080007F0001000100E3
:1002600000001E021F0220022102220223020000BF
:100270000100010001000100010034020000010042
:1002800001000100010001000000000001004B001E
:1002900052004E0027024700480024022502260291
:1002A00027022D0200002E02380200002F02300229
:1002B0003102010001000100000000000100010006
:1002C000010001000100810080007F0001000100A9
:1002D00000003900BC00AE00BB00010001000000BE
:1002E0000100010001000100010001000000010007
:1002F00001000100010001000000000001004B00AE
:1003000052004E002702470048004A0050005100AA
:100310004F00490000002E024D0000000053015321
:10032000025303530100010000000000010001001E
:100330000100010044454255473A20656E61626CF8
:1003400065642E0A0054494D455233206469736137
:10035000626C65642E0A0054494D45523320656E27
:1003600061626C65642E0A007267626C696768740A
:100370002073657420687376205B4E4F454550525C
:100380004F4D5D3A2025752C25752C25750A007278
:1003900067626C696768742073657420687376207F
:1003A0005B454550524F4D5D3A2025752C25752CE7
:1003B00025750A007267626C6967687420726169EA
:1003C0006E626F7720736574206873763A202575A6
:1003D0002C25752C25642C25750A007267626C69C2
:1003E0006768742064697361626C65205B45455081
:1003F000524F4D5D3A207267626C696768745F6343
:100400006F6E6669672E656E61626C65203D2025A2
:10041000750A007267626C6967687420656E616254
:100420006C65205B454550524F4D5D3A20726762C6
:100430006C696768745F636F6E6669672E656E616D
:10044000626C65203D2025750A007267626C6967E1
:10045000687420746F67676C65205B454550524F28
:100460004D5D3A207267626C696768745F636F6E96
:100470006669672E656E61626C65203D2025750A90
:10048000007267626C69676874206D6F6465205BD9
:100490004E4F454550524F4D5D3A2025750A00722A
:1004A00067626C69676874206D6F6465205B4545A1
:1004B00050524F4D5D3A2025750A007267626C6993
:1004C0006768745F696E6974207267626C696768D7
:1004D000745F636F6E6669672E6D6F6465203D2083
:1004E000302E2057726974652064656661756C747E
:1004F0002076616C75657320746F20454550524FAE
:100500004D2E0A007267626C696768745F696E6974
:1005100074206565636F6E666967206973206E6F0E
:100520007420656E61626C65642E0A007267626C8D
:10053000696768745F696E6974207374617274218D
:100540000A007267626C696768745F696E6974201B
:1005500063616C6C65642E0A007267626C6967681F
:10056000745F636F6E6669672E7370656564203DA6
:100570002025640A007267626C696768745F636F44
:100580006E6669672E76616C203D2025640A0072D4
:1005900067626C696768745F636F6E6669672E7304
:1005A0006174203D2025640A007267626C69676887
:1005B000745F636F6E6669672E687565203D2025E0
:1005C000640A007267686C696768745F636F6E665F
:1005D00069672E6D6F6465203D2025640A0072678F
:1005E000626C696768745F636F6E6669672E656EBB
:1005F00061626C65203D2025640A007267626C6947
:100600006768745F636F6E666967206570726F6D8F
:100610000A0000046801F000B40078005A007F3F2F
:100620001F643214643214783C1E1E140A05000044
:1006300000000001010101010101010102020202A9
:10064000020202020203030303030303030404047C
:100650000404040505050505060606060607070742
:1006600007080808080909090A0A0A0A0B0B0B0CF3
:100670000C0C0D0D0D0E0E0F0F0F1010111111128D
:100680001213131414151516161717181819191A0A
:100690001A1B1C1C1D1D1E1F1F202021222223246B
:1006A000252526272728292A2B2B2C2D2E2F2F30A6
:1006B000313233343536363738393A3B3C3D3E3FBC
:1006C0004041424344464748494A4B4C4D4F5051A4
:1006D0005253555657585A5B5C5E5F60626364665E
:1006E00067696A6C6D6E707173747678797B7C7EE5
:1006F0008081838486888A8B8D8F91929496989A34
:100700009B9D9FA1A3A5A7A9ABADAFB1B3B5B7B949
:10071000BBBDBFC1C4C6C8CACCCFD1D3D6D8DADC22
:10072000DFE1E4E6E8EBEDF0F2F5F7FAFCFF0A00B2
:100730002530325820006B6579626F6172645F7298
:1007400065706F72743A20000A0025303258006BD1
:100750006579626F6172645F7365745F6C65643A3A
:1007600020003F00433E20004C25640A0074696D60
:1007700065725F72656164333228293A202530340E
:100780006C580A006B6579626F6172645F69646CB2
:10079000653A2025580A006B6579626F6172645F63
:1007A00070726F746F636F6C3A2025580A00686F1F
:1007B00073745F6B6579626F6172645F6C6564739B
:1007C00028293A2025580A000A092D2053746174FB
:1007D0007573202D0A004743433A20382E332E30BC
:1007E000204156522D4C4942433A20322E302E3071
:1007F000204156525F415243483A20617672350A91
:10080000004F5054494F4E533A204C5546412045D5
:10081000585452414B455920434F4E534F4C45205D
:10082000434F4D4D414E4420343039360A00425535
:10083000494C443A20223566656534662D646972F8
:10084000747922202831303A32313A3539204A75CC
:100850006C2033302032303139290A005649443A6D
:1008600020307843423130284B656562696F29201A
:100870005049443A2030783132343728466F757207
:1008800069657229205645523A203078303130302F
:100890000A00444553433A2053706C697420343045
:1008A0002070657263656E7420737461676765722A
:1008B0006564206B6579626F6172640A000A092DB4
:1008C0002056657273696F6E202D0A000A092D206B
:1008D000436F6E736F6C65202D0A4553432F713A39
:1008E00009717569740A000A092D204D61676963F1
:1008F000202D0A443A094465627567204D6573737B
:1009000061676520546F67676C650A583A094D61E5
:1009100074726978204465627567204D6F64652044
:10092000546F67676C65202D2053686F77206B6567
:10093000797072657373657320696E206D6174726E
:10094000697820677269640A4B3A094B6579626F6E
:1009500061726420446562756720546F67676C65D7
:10096000202D2053686F77206B65797072657373E3
:10097000207265706F72740A4D3A0944656275673A
:10098000204D6F75736520546F67676C650A563A22
:100990000956657273696F6E0A533A09537461742C
:1009A00075730A433A09416374697661746520433B
:1009B0006F6E736F6C65204D6F64650A46312D460E
:1009C00031303A0953776974636820746F204C6141
:1009D00079657220302D392028463130203D204C59
:1009E00030290A302D393A095377697463682074C5
:1009F0006F204C6179657220302D390A4553433A96
:100A00000953776974636820746F204C617965724B
:100A100020302028616C7465726E617465206B658E
:100A2000792031290A47524156453A09537769746A
:100A3000636820746F204C617965722030202861D2
:100A40006C7465726E617465206B65792032290A59
:100A500050415553453A094A756D7020746F2042D4
:100A60006F6F746C6F616465722028526573657472
:100A7000290A003F000A6D6F7573653A206F66663C
:100A80000A000A6D6F7573653A206F6E0A000A6B73
:100A90006579626F6172643A206F66660A000A6B5C
:100AA0006579626F6172643A206F6E0A000A6D6147
:100AB000747269783A206F66660A000A6D61747212
:100AC00069783A206F6E0A000A64656275673A2099
:100AD0006F66660A000A64656275673A206F6E0A7F
:100AE000000A0A4A756D70696E6720746F20626F24
:100AF0006F746C6F616465722E2E2E2000433E2051
:100B0000004B6579626F6172642073746172742E38
:100B10000A005B575D005B535D005B525D005B4408
:100B20005D005B435D0004033000000010034600DD
:100B30006F007500720069006500720000000E030E
:100B40004B0065006500620069006F00000004034F
:100B5000090409025B00030100A0FA090400000176
:100B60000301010009211101000122400007058154
:100B70000308000A09040100010300000009211113
:100B80000100012236000705820308000A09040259
:100B900000020300000009211101000122220007C8
:100BA0000583032000010705030320000112011043
:100BB000010000000810CB471200010102030106EA
:100BC00031FF0974A1010975150026FF00952075F4
:100BD0000881020976150026FF009520750891020C
:100BE000C005010980A10185021601002603001A33
:100BF00081002A8300751095018100C0050C090150
:100C0000A1018503160100269C021A01002A9C02FC
:100C1000751095018100C005010906A1010507199C
:100C2000E029E715002501950875018102950175F8
:100C3000088101050819012905950575019102959D
:100C400001750391010507190029FF150026FF0012
:100C5000950675088100C03F000D0A002573002528
:100C6000730A000D0A0025730025730A0000B82DD1
:100C7000C32D11241FBECFEFDAE0DEBFCDBF04B617
:100C800003FE27C08091B4029091B502A091B602F4
:100C9000B091B7028730904BA740B04BD1F410927F
:100CA000B4021092B5021092B6021092B70214BEAE
:100CB00084B7877F84BF0FB6F894A89580916000B1
:100CC000886180936000109260000FBEE0E0F8E35E
:100CD000099511E0A0E0B1E0E0EAFAE602C0059073
:100CE0000D92AC35B107D9F722E0ACE5B1E001C017
:100CF0001D92A43BB207E1F716E0C8E3D6E004C0BA
:100D00002197FE010E94A634C733D107C9F70E947C
:100D1000D7270C94F4340C940000FF93EF93E091E8
:100D20005C01F0915D01309709F00995EF91FF9119
:100D30000895FC018591803011F0EFDFFBCF08951D
:100D4000FF27E0E230E247FF0CC0419597FF09C062
:100D5000EDE26095709580959095611D711D811DE6
:100D6000911D27FF02C0219530E350E2AA27660FAC
:100D7000771F881F991FAA1FA41710F0A41B639543
:100D80005A95A9F7AA3008F0A95FA05DAF93F39533
:100D9000611571058105910541F7ED3211F4EF936D
:100DA000F395F21718F43F93F395FBCF8F91B5DFCE
:100DB000FA95E1F70895E991F9918591803021F054
:100DC000853219F0AADFF9CF089520E0E894559113
:100DD0005532C1F3503311F4689455915A3348F4A5
:100DE000505390F3220F022E220F220F200D250FB9
:100DF000F4CF0EF4219589919991533619F3533715
:100E000029F1533559F1BC0188279927E8945C36BC
:100E100021F48991999168945591543639F446EFAB
:100E20007EF077FF0DC08FEF9FEF0AC055374AE085
:100E300039F0583540E121F0523642E009F008958A
:100E4000FF93EF937DDFEF91FF91B7CFFF93EF9388
:100E5000FC0181918030B9F360DFFBCFFF93EF930A
:100E600068DFF1CFDF93CF93CDB7DEB72596A3DF51
:100E7000CF91DF91089508950C943B07809107026C
:100E80008B6080930702A8E1B1E061E070E08D9192
:100E9000E82FE295EF70F0E041A18F709B0101C057
:100EA000220F8A95EAF7922F9095942391A382A11D
:100EB000822B82A381E0AC31B80749F7A1E1B1E010
:100EC00061E070E08D91E82FE295EF70F0E041A1D4
:100ED0008F709B0101C0220F8A95EAF7922F90959F
:100EE000942391A382A1822B82A381E0A831B80729
:100EF00049F7559A209AEEE5F1E0A7E6B1E086E6DB
:100F000091E011921D928E179F07D9F70C94660AF3
:100F10002F923F924F925F926F927F928F929F9209
:100F2000AF92BF92CF92DF92EF92FF920F931F93F7
:100F3000CF93DF938091000124E0222E312C88236F
:100F400011F0312C212C810109591E4F88E1E82E26
:100F500081E0F82E6801AA24A394B12C99249394DB
:100F6000E60169906E01DE011E92F70181917F0119
:100F7000E82FE295EF70F0E091A18F70B50101C00C
:100F8000660F8A95EAF7892F862B81A382A1762E98
:100F90007094872182A380EA8A95F1F741E151E0BC
:100FA00090E080E0EA018990AE01282D22952F7013
:100FB00030E0E90148A05C90382D3F70E50102C0A7
:100FC000CC0FDD1F3A95E2F79E01242109F050C0B5
:100FD0002A2D082E01C0220F0A94EAF725292C9306
:100FE000019687309105F1F681A1782271A282A144
:100FF000682B62A38C91681641F090926F010E9459
:1010000095239093710180937001DCE1ED16D1E09E
:10101000FD0609F0A5CF80916F018823A9F080918A
:101020007001909171010E94AD23069768F0E10173
:10103000C25ADE4F80E0F80191918F0199938F5F42
:101040008430C9F710926F0181E0DF91CF911F9139
:101050000F91FF90EF90DF90CF90BF90AF909F9057
:101060008F907F906F905F904F903F902F9008955A
:1010700020E0B4CFCF93DF9380910001D0E0C0E0B7
:10108000882311F0C4E0D0E00E94D209009789F4CF
:10109000C25ADE4F30E020E0F901EC58FE4F4081AB
:1010A00049932F5F3F4F24303105B1F7DF91CF9146
:1010B000089581E090E0FACFCF930E948807C82F6F
:1010C0000E943A08892BD9F05D98809166018F5F64
:1010D00080936601863070F080910001F0E0E0E0DE
:1010E000882311F0E4E0F0E0E25AFE4F1082118212
:1010F000128213820E94680A8C2FCF9108955D9A04
:1011000010926601F7CF0E94880780910001E4E009
:10111000F0E0882311F0F0E0E0E0E25AFE4F90E0CA
:1011200080E02191DC01AC58BE4F2C9301968430B5
:101130009105B9F70895E82FF0E0E25AFE4F80815B
:101140000895CF92DF92EF92FF920F931F93CF9368
:10115000DF9382E091E00E9499068EE5E82E81E01F
:10116000F82ED0E0C0E09DEFC92E90E0D92E04EF1C
:1011700010E0DF93CF93DF92CF920E9432078AEF85
:1011800090E00E949906F70181917F0190E00E9412
:10119000CF229F938F931F930F930E94320782EF6A
:1011A00090E00E94990621968DB79EB708960FB6DB
:1011B000F8949EBF0FBE8DBFC830D105D1F6DF9128
:1011C000CF911F910F91FF90EF90DF90CF900895F6
:1011D000E8EDF0E08081806180838AE18A95F1F713
:1011E00000C08091D9008170089552985A9889B1B1
:1011F00082FB882780F9809300010E94E8088823F9
:1012000021F00E946009789408950E948C230E9426
:101210006409F9CF0E943E070E948308FDCF0E9417
:10122000F5080E94E808811102C00E940A09089589
:10123000509A08955098589A0895589A08950E947F
:101240001A09489BFECF80E88A95F1F708950E941D
:101250001A0998E080E029B1880F2170822B20E8DC
:101260002A95F1F725E02A95F1F70000915099F7BA
:1012700008950F931F93CF93082F0E941809C8E079
:1012800010E0C15020F4CF911F910F910895C80133
:101290000C2E02C0959587950A94E2F780FF06C050
:1012A0000E941D0980E88A95F1F7EBCF5898FACF94
:1012B0000E941809589880E88A95F1F70C941D0946
:1012C0000E9418090C941D090E941A09E89AE9E67F
:1012D000F0E080818C7F808308951F920F920FB67B
:1012E0000F921124EF92FF921F932F933F934F93EE
:1012F0005F936F937F938F939F93AF93BF93CF939E
:10130000DF93EF93FF930E945809D0E0C0E010E014
:10131000CE018C589E4F7C01FC0180810E943909CE
:101320000E945809F7018081180F2196C430D10519
:1013300079F7812F0E9439090E945809F0E8FA953F
:10134000F1F780E48A95F1F70E94270980937301F1
:101350000E945809D09173010E942709C82F0E944A
:1013600058090E941A0980917201DC17C9F0816046
:1013700080937201FF91EF91DF91CF91BF91AF9177
:101380009F918F917F916F915F914F913F912F919D
:101390001F91FF90EF900F900FBE0F901F90189528
:1013A0008E7FE6CFEF92FF921F93CF93DF93F89457
:1013B0000E941809589825E02A95F1F700000E942C
:1013C0001A090E941D0930E83A95F1F789B1182FE2
:1013D000117080FF09C0789481E090E0DF91CF9197
:1013E0001F91FF90EF9008950E941F09D0E0C0E088
:1013F0000E942709FE01EC58FE4F7F0180830E9466
:101400001F09F7018081180F2196C430D10581F79B
:101410000E942709C82F0E941F091C13DCCF80914E
:1014200073010E9439090E941F09809173010E9473
:1014300039090E941F090E9418090E941D09789409
:1014400090E080E0CBCF0C94250A8091070280FFCA
:1014500004C08BE591E00E9499060E94AD2D809119
:10146000070280FF04C084E491E00C94990608957B
:10147000CF93DF93EB012091070220FF19C02A814F
:101480001F922F9329811F922F9328811F922F93B0
:101490009F938F9389E191E09F938F930E943207EE
:1014A0008DB79EB70A960FB6F8949EBF0FBE8DBF3C
:1014B0006A8170E0888190E00E94112E81E0DF91C6
:1014C000CF91089581E008950C94380A0C94230A72
:1014D0000C943C0708950C946A0A0C946B0A0895C6
:1014E0000E94F41C0E946F0A2FEF84E39CE02150BD
:1014F00080409040E1F700C0000087E797E79093B5
:101500000108809300080C94FB230F931F93CF9343
:10151000DF938C01FC01C081D181CE010E94B021FA
:10152000BE010E94230DEC01B8010E94640A8823C9
:1015300009F4DFC0B801CE010E947E0F882309F4B0
:10154000D8C0CA3CFCE5DF0709F41FC108F066C03B
:10155000C23C9CE5D90709F4F2C008F03DC0C53192
:10156000FCE5DF07D0F4C2308CE5D80708F094C161
:10157000C1159CE5D90709F4B7C0C130DC4509F4B1
:10158000BEC081E080937D0180937E01C801DF9120
:10159000CF911F910F910C94620AC03CFCE5DF07CC
:1015A00009F4BBC008F0C0C0C531DC4551F70E944A
:1015B0007622F8019281992309F437C28A7A91E060
:1015C00009F490E09093780181112DC289E20E9484
:1015D000FF210E9443228DC0F8018281C63CFCE5B8
:1015E000DF0709F4C1C068F4C43CECE5DE0709F488
:1015F000B6C008F4AFC0882309F47BC00E94B412BF
:1016000078C0C83C9CE5D90709F4B9C008F4B1C05A
:10161000882309F46EC00E94F1106BC0C23DFCE546
:10162000DF0709F410C170F5F8018281CE3CFCE5BA
:10163000DF0709F4CCC0D8F4CC3CECE5DE0709F4B4
:10164000B3C008F4AAC0882309F453C00E94E31071
:10165000663071058105910540F00E94E310683005
:1016600071058105910508F472C086E09AC0C03DFD
:101670009CE5D90709F4D3C008F4BDC08823C9F19B
:1016800088E18FC0C63DFCE5DF0709F4B1C1B0F4C5
:10169000F8018281C43DFCE5DF0709F46FC108F45D
:1016A000E8C0882309F48FC110927E010E9495231F
:1016B00090937C0180937B0180E26BC1CA3DECE595
:1016C000DE0709F4DBC0CB3DFCE5DF0709F4DDC034
:1016D000C93DDC4509F055CFF8018281882349F0E6
:1016E00080E00E946D2805C0F801828181110E946E
:1016F000700A80E0DF91CF911F910F910895F8015A
:1017000082818823B1F38091070281608093070270
:1017100084E393E00E949906ECCFF801828188234C
:1017200041F30E948D14E5CFF8018281882309F3EB
:101730000E947622827259F00E94DB13DACFF80100
:1017400082818823B1F20E9476228272A9F30E94DC
:10175000D113CFCF882369F20E947D12CACF88238C
:1017600041F20E949512C5CF882319F20E94CC1233
:10177000C0CF882309F4BDCF0E94E412BACF8823DA
:1017800009F4B7CF0E94FC12B4CFF80182818823FC
:1017900009F4AFCF0E940611ACCF882309F4A9CF7A
:1017A00081E00E94CE13A5CF882309F4A2CF0E9426
:1017B000E310623071058105910538F00E94E31055
:1017C000653071058105910510F282E0EACF88232A
:1017D00009F48FCF0E94E3106930710581059105EE
:1017E00040F00E94E3106E3071058105910508F408
:1017F000AECF89E0D6CF882309F47BCF0E94E310D7
:101800006F3071058105910540F00E94E31064314D
:1018100071058105910508F49ACF8FE0C2CF882326
:1018200009F467CF0E94E3106531710581059105C8
:1018300040F00E94E310673171058105910508F4BD
:1018400086CF85E1AECFF8018281882309F451CF9C
:101850000E94E310693171058105910540F00E94F5
:10186000E310623271058105910508F470CF89E1BA
:1018700098CF882309F43DCF83E293CFF80182818A
:10188000882309F436CF82E02CCFF80182818823A7
:1018900009F42FCF83E025CFF8018281882309F452
:1018A00075CE0E94FD22811102C00E94DC220E949E
:1018B000102390E09093A6028093A502FE01E350CE
:1018C000FC458091A5028160E231F10538F4EF5FBB
:1018D000FA4C0C94A6348091A50282608093A502F4
:1018E0008091A5020E9414230E94F41C02CF8091D3
:1018F000A5028460F3CF8091A5028860EFCF80912C
:10190000A5028061EBCF8091A5028062E7CF809134
:10191000A5028064E3CF8091A5028068DFCF80912B
:10192000A5028C60DBCF8091A5028E7FD7CF8091FE
:10193000A5028D7FD3CF8091A5028B7FCFCF8091E1
:10194000A502877FCBCF8091A5028F7EC7CF8091E4
:10195000A5028F7DC3CF8091A5028F7BBFCF8091E1
:10196000A5028F77BBCF8091A502837FB7CF9091DF
:10197000A502892F97FB87F98058B0CF882361F0A3
:1019800010927D010E94952390937A0180937901B2
:1019900082E00E94941AADCE80917D0181110FC02A
:1019A0008091790190917A010E94AD23883C910544
:1019B00030F486E20E946A1986E20E94451A82E0AB
:1019C0000E949B1A96CE80917E0181110FC080915A
:1019D0007B0190917C010E94AD23883C910530F4FD
:1019E00087E20E946A1987E20E94451A80E2E8CFE6
:1019F000F8018281811158CE80917E018111F6CF4C
:101A000080917B0190917C010E94AD23883C9105DF
:101A100068F780E20E949B1A88E20E946A1988E2B5
:101A20000E94451A66CE85E3D2CD8091780181115E
:101A300004C089E20E940622CCCD85E3FBCF90E072
:101A400080E008950895972F70E027E0929F600D41
:101A5000711D1124FB0198E3899FE00DF11D1124F4
:101A6000EE0FFF1FEC58FE4F859194910895FC01F5
:101A7000EE0FFF1FEB5BFC4F859194910895CF9380
:101A8000DF930E94230D0E94DF0EEC01811520E5FB
:101A9000920708F042C0811530E4930708F007C1AF
:101AA000883E910528F5803E910508F09BC0883A54
:101AB000910588F4853A910508F08AC08130910536
:101AC00009F490C0009709F48DC0049708F08AC00B
:101AD000D0E0C0E087C08D3B910508F487C0805CF2
:101AE0009109C03CD105A0F30E94370DEC017AC0EA
:101AF0008115904250F4C11581E0D80708F072C0FA
:101B0000C03FD10528F3D0656DC0C11590E3D9075A
:101B100008F0C3C0CE019F70E7CF811525E592077D
:101B200058F5811534E5930708F0F0C0811542E5BA
:101B3000940750F4C11581E5D80708F4BBC0DC2F29
:101B4000CC27C16FD06A4EC0982F969596959E016E
:101B500023703327C115D34508F0C9C0C1E0D0E0D8
:101B600002C0CC0FDD1F2A95E2F720E2929FC00150
:101B70001124C82BD92BB9C0C11589E5D80780F429
:101B8000C11598E5D90708F0C6C0C11526E5D207EA
:101B900008F09ECFDC2FCC27CC27DF71D06222C08B
:101BA000CE01C1153AE5D30708F4BAC090568115A5
:101BB000904208F08DCF8D2F8F710E945A0F90E0C8
:101BC000982F882788279F719C012C2BE901E6CF4D
:101BD000853A910509F4AEC0863A910509F0ADC089
:101BE000C2E8D0E4CE01DF91CF910895883A910503
:101BF00009F4A6C0893A910509F4A5C08A3A91056D
:101C000009F4A4C08B3A910509F4A3C08C3A91055C
:101C100009F4A2C08B3B910509F4A1C08C3B91054E
:101C200009F4A0C08D3A910509F49FC0803B91054D
:101C300009F49EC08E3A910509F49DC08F3A910532
:101C400009F49CC0813B910509F49BC0823B91053E
:101C500009F49AC0833B910509F499C0843B91052E
:101C600009F498C0853B910509F497C0863B91051E
:101C700009F496C0873B910509F495C0883B91050E
:101C800009F494C0893B910509F493C08A3B9105FE
:101C900009F492C0C0E0D4E4A5CFCE019927D3FFC8
:101CA00003C0EC01D86C9ECFEC01D06C9BCFDF70F1
:101CB000D06A98CFCE01E4E096958795EA95E1F752
:101CC00083702C2F26952695237090E2299F9001F2
:101CD0001124382B8C2F8370C1E0D0E002C0CC0FD0
:101CE000DD1F8A95E2F7C22BD32BDC687BCFC1E0E6
:101CF000D0E002C0CC0FDD1F2A95E2F730E2939FBF
:101D0000C0011124C82BD92BDA686CCFD82FCC276F
:101D1000C46FD06A67CFDC2FCC27C06FD06A62CF88
:101D200034E0969587953A95E1F78F70CF70C06E45
:101D3000D82FBECFC1E8D0E455CFC3E8D0E452CF0E
:101D4000C2EED4E44FCFC9EED4E44CCFCAEED4E413
:101D500049CFC5EBD4E446CFC6EBD4E443CFC3EBC5
:101D6000D4E440CFC4EBD4E43DCFC7EBD4E43ACFC6
:101D7000CCECD4E437CFCDECD4E434CFC3E8D5E415
:101D800031CFCAE8D5E42ECFC2E9D5E42BCFC4E9E0
:101D9000D5E428CFC1E2D6E425CFC3E2D6E422CFF2
:101DA000C4E2D6E41FCFC5E2D6E41CCFC6E2D6E437
:101DB00019CFC7E2D6E416CFCAE2D6E413CF8238F1
:101DC000910549F1B0F48133910509F462C048F4FA
:101DD0008932910509F456C08A32910509F460C030
:101DE00008958533910509F446C08933910599F02A
:101DF0000895833E910531F138F4803E910591F0CC
:101E0000823E9105B1F00895863E910521F1873E0D
:101E1000910551F108952091A5022370D9F080EE2B
:101E200090E008952091A50220FF14C089E390E07E
:101E300008952091A50222FF0DC024FD09C083EE64
:101E400090E008952091A50222FD31C024FF02C038
:101E500090E080E008952091A50223FFFBCF24FDB0
:101E6000F7CF87EE90E008952091A50223FFEECFF3
:101E700086EE90E008952091A50225FFEBCF89E240
:101E800090E008952091A50225FFE4CF85E390E03E
:101E900008952091A50226FFDDCF8AE290E0089503
:101EA0002091A50226FFD6CF81E390E0089582EE2F
:101EB00090E008959091A50292FF06C0282F287106
:101EC000283069F4877F846093FF06C0282F28712B
:101ED000283161F4877E846194FD877E0895282FE0
:101EE0002471243089F78B7F8860EECF282F2471EE
:101EF000243191F78B7E8861EFCF08950F931F9364
:101F0000CF938C01FB018281811106C0C1E08C2F2F
:101F1000CF911F910F910895C0918C01C11125C0DF
:101F200006311C4599F70E947D0F81E080938C015A
:101F30000E94952390938B0180938A0110927F01D8
:101F400010928101109280011092830110928201FF
:101F500010928501109284011092870110928601DF
:101F60001092890110928801D2CF80918A019091BC
:101F70008B010E94AD238C32914040F680917F010D
:101F8000E82FF0E0EE0FFF1FE058FE4F11830083B3
:101F90008F5F80937F01C0E0BACFCF92DF92EF9244
:101FA000FF920F931F93CF93DF93E901662309F408
:101FB00066C0E42EF12CEFEFF0E0E61BF109EE9D98
:101FC0008001EF9D100DFE9D100D1124212FE12F9A
:101FD000FF27EE1AFF0A5CE3C52ED12CB6010E9442
:101FE0005C34FB01BC01E69EC001E79E900DF69EAD
:101FF000900D1124B6010E945C34E230F10589F1A4
:1020000068F4812F262F210F309781F0242F461B53
:10201000319761F080E020E040E008C0E430F10555
:1020200051F128F1842F861B3597A1F7E42FF0E0BA
:10203000E25DF94F4491E22FF0E0E25DF94F9491B7
:10204000E82FF0E0E25DF94FE49149839883EA8359
:10205000DF91CF911F910F91FF90EF90DF90CF9084
:102060000895862F810FE42F412F2E2FDFCFE42FED
:10207000E61B842FF9CF842F462F410FD7CF842F13
:10208000242FD4CF88E090E00C94B434AB01BC0191
:1020900088E090E00C94D234E2E7F2E083E08083C1
:1020A00011828FEF828383831482608171818281A8
:1020B00093810C9446108091070280FF83C08BEFC0
:1020C00095E09F938F930E943207809107020F90B3
:1020D0000F9080FF77C08091720281701F928F9362
:1020E0008EED95E09F938F930E94320780910702B7
:1020F0000F900F900F900F9080FF64C0809172023C
:1021000086958F731F928F9383EC95E09F938F93A7
:102110000E943207809107020F900F900F900F904E
:1021200080FF50C090917202292F221F2227221F68
:1021300080917302982F990F922B87FB882780F943
:102140008F939F9389EA95E09F938F930E94320724
:10215000809107020F900F900F900F9080FF32C078
:10216000809174021F928F938FE895E09F938F93D5
:102170000E943207809107020F900F900F900F90EE
:1021800080FF20C0809175021F928F9385E795E0B4
:102190009F938F930E943207809107020F900F90B8
:1021A0000F900F9080FF0EC0809176021F928F9348
:1021B00089E595E09F938F930E9432070F900F90CF
:1021C0000F900F9008956091720260FF06C06695AF
:1021D0006F7370E090E080E0089560E070E0CB0104
:1021E00008958091760290E001968430910514F074
:1021F00083E090E0809376026091720270917302A6
:1022000080917402909175020C9446108091760230
:102210008150990B97FF02C090E080E084309105D7
:1022200014F083E090E080937602609172027091E6
:10223000730280917402909175020C944610809103
:102240007202E7E7F2E080FF06C06EE070E087E729
:1022500092E00C94CD17118210821282339682E0A4
:10226000E13AF807C1F7F1CF9091720290FF0CC0EC
:10227000E7E7F2E0818360834283339692E0E13ABC
:10228000F907C1F70C941F110895CF93DF9300D085
:102290000F92CDB7DEB72091720220FF0AC09E01D7
:1022A0002F5F3F4F0E94CD0F4B8169818A810E9431
:1022B00034110F900F900F90DF91CF9108952F92CE
:1022C0003F924F925F926F927F928F929F92AF92C6
:1022D000BF92CF92DF92EF92FF920F931F93CF9313
:1022E000DF9300D000D000D00F92CDB7DEB78C01C5
:1022F000462E542E2F838091720280FF55C0982F56
:102300009E77923009F069C09E012F5F3F4FC80150
:102310000E94CD0F4B8169818A810E943411809186
:10232000720200FB87F980937202809173028078B9
:10233000902F9695892B10FB87F98093730240921A
:102340007402509275028F81882309F4C9C060918C
:1023500072027091730280917402909175020E94D2
:102360004610809175021F928F93809174021F9284
:102370008F9390917202292F221F2227221F809172
:102380007302982F990F922B87FB882780F98F93E0
:102390009F938FE893E09F938F930E9432070FB62D
:1023A000F894DEBF0FBECDBF27960FB6F894DEBF00
:1023B0000FBECDBFDF91CF911F910F91FF90EF9096
:1023C000DF90CF90BF90AF909F908F907F906F9055
:1023D0005F904F903F902F900895E82FE695EF7310
:1023E0009EE39E0F9F73943018F45090750297CF20
:1023F0009AE39E0F9F73993068F4881F8827881F7F
:1024000090917302292F220F022F082B97FB11277F
:1024100010F985CF87E28E0F8F738A3008F07FCF57
:10242000E951FF0BE0FD59C021E02C83EE7FEC5E0B
:10243000F94F85909490C4016EE070E00E945C3486
:102440009C81692E990F7708669DC001679D900D4C
:10245000769D900D11249E838D83580198E9A91AC9
:102460009EEFB90A87E7C82E82E0D82EF12CE12C26
:10247000C50168E671E00E945C341C01809107028E
:1024800080FF14C09F928F927F922C812F933F9256
:102490002F92FF92EF9284EB93E09F938F930E9491
:1024A00032070FB6F894DEBF0FBECDBF9601452DA3
:1024B000642DC1010E94CD0F9FEFE91AF90A8D81A9
:1024C0009E81A80EB91E93E0C90ED11C2EE0E21623
:1024D000F10471F60E941F1122CF8FEF8C83A6CFDB
:1024E0001F925F921F924F9211701F930F9388E675
:1024F00093E051CF21E00C945F11E2E7F2E02081FC
:10250000221F2227221F30917302432F440F842F52
:10251000822B37FB992790F90A9668E671E00E94B2
:102520007034438162810C947A1220917202221FCE
:102530002227221F30917302432F440F842F822BB6
:1025400037FB992790F98A30910540F4825A9E4FC3
:1025500040917502609174020C947A120A9768E6B1
:1025600071E00E947034F4CF609174026F3E90F479
:102570006F5E80917202881F8827881F9091730276
:10258000292F220F97FB992790F940917502822BF2
:102590000C947A126FEFEDCF60917402613190F07C
:1025A000615180917202881F8827881F9091730261
:1025B000292F220F97FB992790F940917502822BC2
:1025C0000C947A1260E0EDCF409175024F3E90F48A
:1025D0004F5E80917202881F8827881F9091730236
:1025E000292F220F97FB992790F960917402822B73
:1025F0000C947A124FEFEDCF40917502413190F07B
:10260000415180917202881F8827881F9091730220
:10261000292F220F97FB992790F960917402822B42
:102620000C947A1240E0EDCF20E00C945F11909171
:10263000720290FF0FC02E3068F430E0F901EE0F07
:10264000FF1FE20FF31FE958FD4F81836083428330
:102650000C941F1108951F93CF93DF9300D00F9216
:10266000CDB7DEB7122F2091720220FF0BC09E0162
:102670002F5F3F4F0E94CD0F212F4B8169818A81AF
:102680000E9417130F900F900F90DF91CF911F9121
:10269000089581E08093AA018091070280FF08C01D
:1026A00087E593E09F938F930E9432070F900F90DE
:1026B00008951092AA018091070280FF08C085E466
:1026C00093E09F938F930E9432070F900F9008958D
:1026D0009091720290FF61C0917881113AC092602E
:1026E000909372026623E9F1609172027091730215
:1026F00080917402909175020E944610809172023E
:1027000086958F731F928F938FE994E09F938F9399
:102710000E9432070F900F900F900F9080917202DD
:10272000982F9E77923031F50E9459138091720252
:10273000881F8827881F90917302292F220F97FBEB
:10274000992790F94091750260917402822B0C9444
:102750001413853210F09864C3CF8F73880F982BB1
:10276000BFCF8091720286958F731F928F9381E8FD
:1027700094E0CCCF86958F732EE3280F2F732731EB
:1027800020F0963411F0983419F40E944913CECFFA
:10279000895D8F738A3050F6C7CF089561E00C943D
:1027A00068138091720286958F738F5F853208F06F
:1027B00081E00C94CE138091720286958F738150C4
:1027C00009F484E20C94CE13CF93DF93C2E7D2E0F6
:1027D0008881816088831F9281E08F9383E194E0F8
:1027E0009F938F930E9432070F900F900F900F903E
:1027F000888186958F73DF91CF910C94CE1360E022
:102800000C9468138091070281608093070280FF17
:1028100014C082E495E09F938F930E9432078091C9
:1028200007020F900F9080FF08C08CE295E09F9305
:102830008F930E9432070F900F900E94FD2281110A
:1028400010C08091070280FF08C084E095E09F934C
:102850008F930E9432070F900F900E94DC220E94FB
:102860004C100E9442106093720270937302809326
:102870007402909375026E77C1F48091070280FF15
:1028800008C08BEB94E09F938F930E9432070F90C8
:102890000F900E944C100E9442106093720270933D
:1028A000730280937402909375020E945B1081E022
:1028B0008093AA018091720280FF04C086958F7375
:1028C0000C94FF130895CF93DF93C2E7D2E0888181
:1028D0008E7F8883688179818A819B810E944610DE
:1028E000888181701F928F938BED93E09F938F93DC
:1028F0000E9432070E9459132FEF80E792E0215087
:1029000080409040E1F700C000000F900F900F90C2
:102910000F90DF91CF910C941F11809172028095DE
:1029200081701F928F938AE494E09F938F930E940B
:102930003207809172020F900F900F900F9080FDE0
:102940000C9463140C94E413CF93C82F8091A801C6
:102950009091A9010E94AD23EC2FF0E0E65DF94FC4
:10296000E491E817190611F008F042C00E9495237F
:102970009093A9018093A8016091A70170E090E075
:1029800080E00E94513220E030E04FE753E40E94A3
:1029900074312BED3FE049E450E40E947A330E9409
:1029A000E7330E94EE312BE43AE34EE25FE30E940C
:1029B000073120EF3BEF48ED52E40E947A330E944A
:1029C0002032462F80917202881F8827881F90919D
:1029D0007302292F220F97FB992790F960917402B7
:1029E000822B0E9445118091A7018F5F8093A701E0
:1029F000CF910895CF93C82F8091A5019091A60102
:102A00000E94AD23EC2FF0E0E95DF94FE491E81767
:102A1000190609F0E8F40E9495239093A60180938B
:102A2000A50140917502609174028091A30190917B
:102A3000A4010E9445118091A3019091A4010196E7
:102A400068E671E00E945C349093A4018093A30136
:102A5000CF910895DF92EF92FF920F931F93CF9340
:102A6000DF93D82E8091A1019091A2010E94AD2305
:102A7000ED2DE695F0E0EC5DF94FE491E8171906CD
:102A800009F0A8F50E9495239093A2018093A101DB
:102A900007E712E0D0E0C0E088E6E82EFF24F394D8
:102AA00080919F019091A0018C0F9D1FB7010E9402
:102AB0005C34980140917502609174020E94CD0FC0
:102AC00069960D5F1F4FCE3581E0D80749F70E9408
:102AD0001F1180919F019091A001D0FE10C001961E
:102AE000B7010E945C349093A00180939F01DF9115
:102AF000CF911F910F91FF90EF90DF900895019774
:102B0000F2CFCF92DF92EF92FF920F931F93CF936A
:102B1000DF93C82FFF24FA9480FD02C0FF24F394B2
:102B200080919D0190919E010E94AD23C695EC2F4E
:102B3000F0E0EF5DF94FE491E817190611F008F0A5
:102B400051C00E94952390939E0180939D0107E7B9
:102B500012E0D0E0C0E0F80111821082128294E00D
:102B6000C92ED12CE12C80919C018E0D87FD825FB6
:102B7000082E000C990B8C179D07E9F480917502C3
:102B80008C9DA0018D9D500D11245595479555950F
:102B9000479580917202881F8827881F9091730241
:102BA000592F550F97FB992790F99801609174025E
:102BB000852B0E94CD0FEF0CF1E0CF1AD10899F6CA
:102BC00021960D5F1F4FCE30D10529F60E941F11AF
:102BD00080919C0191E0F91210C081110CC08DE030
:102BE00080939C01DF91CF911F910F91FF90EF9007
:102BF000DF90CF9008958150F3CF90E00196BE0111
:102C00000E947034EDCF0F931F93CF93DF93C82FA3
:102C100080919A0190919B010E94AD23EC2FF0E0EE
:102C2000E25EF94FE491E817190611F008F052C07E
:102C30000E94952390939B0180939A01C7E7D2E06D
:102C4000FE01118210821282339682E0E13AF80787
:102C5000C1F710E000E080919901082E000C990B5B
:102C600008171907E4F180910201082E000C990B56
:102C700080179107A4F180917202881F8827881F0E
:102C800090917302592F550F97FB992790F99E0148
:102C90004091750260917402852B0E94CD0F0F5FE9
:102CA0001F4F23960E301105B1F60E941F1180911F
:102CB000010190919901980F90939901209102013F
:102CC000280F20930201121614F49D301CF08195F8
:102CD00080930101DF91CF911F910F910895198287
:102CE00018821A82DCCFEF92FF920F931F93CF933B
:102CF000DF9380919701909198010E94AD23883EC7
:102D00009340C8F10E949523909398018093970176
:102D1000C0919501D09196012196C170DD27D09385
:102D20009601C093950187E7E82E82E0F82E10E027
:102D300008E7812F86958C0F9D2F911D8170992713
:102D400097014091750260917402FC010E9FC001D1
:102D50000F9F900D11240E94CD0F1F5FF3E0EF0E27
:102D6000F11C1E3031F7DF91CF911F910F91FF9031
:102D7000EF900C941F11DF91CF911F910F91FF9055
:102D8000EF900895CF93DF9300D00F92CDB7DEB7C9
:102D900080919301909194010E94AD23E2E1F6E0CD
:102DA0002591349182179307B8F180919201811196
:102DB0000CC09E012F5F3F4F4FEF6FEF90E080E020
:102DC0000E94CD0F8A81809392010E949523909357
:102DD00094018093930160919101613069F0809139
:102DE000920140E0662361F040E0623011F44091CE
:102DF000920180E060E004C06091920140E080E0D8
:102E00000E9434118091910190E0019663E070E09E
:102E10000E947034809391010F900F900F90DF917A
:102E2000CF910895CF93DF9380918F01909190017E
:102E30000E94AD23843F9140B8F10E949523909366
:102E4000900180938F01D0E0C0E040918D015091BE
:102E50008E012C2F6091740280917202382F331FE3
:102E60003327331F90917302892F880F832B97FB91
:102E7000992790F9C730D105D4F4452BD1F0409172
:102E800075020E942B132196CE30D105F1F60E94D7
:102E90001F1180918D0190918E010196817099276B
:102EA00090938E0180938D01DF91CF910895452BF2
:102EB00031F340E0E6CF8091AA018823D1F19091CF
:102EC0007202892F86958F732EE3280F2F7324307B
:102ED00018F482500C94A4142AE3280F2F73233083
:102EE00018F486500C94FA1427E3280F2F73263019
:102EF00018F489500C942A1521E3280F2F732630DB
:102F000018F48F500C9481152BE2280F2F73233067
:102F100018F485510C9403169E77903311F40C9499
:102F20007316963411F40C94C216983411F40C9460
:102F3000121708953BB1242F209523233BB1432B37
:102F40003FB7F894680F791F8617970711F43FBFB2
:102F50000895FC015191CF01E8E04BB9000000C099
:102F600057FF2BB9550F000000C000C000C02BB99F
:102F700000C0EA9591F7E8CF2AB1242B2AB99B012A
:102F8000220F331F620F731F0E949A1787EC90E085
:102F90000197F1F700C00000089548E00C94BC17B9
:102FA0009093B0018093AF010895E091AF01F0914B
:102FB000B001309721F00190F081E02D099480E07C
:102FC0000895EF92FF920F931F93CF93DF938C019D
:102FD000E091AF01F091B0013097C1F10280F3812F
:102FE000E02D09958091070282FF30C080FF04C068
:102FF00086E397E00E949906D0E0C0E080E3E82EE7
:1030000087E0F82E8091070280FF0EC0F801EC0FD8
:10301000FD1F80811F928F93FF92EF920E943207D3
:103020000F900F900F900F902196C830D10551F757
:103030008091070280FF0AC08EE297E0DF91CF9176
:103040001F910F91FF90EF900C949906DF91CF9113
:103050001F910F91FF90EF9008952091AD01309155
:10306000AE012817390771F09093AE018093AD013E
:10307000E091AF01F091B001309721F00680F78127
:10308000E02D099408952091AB013091AC012817EF
:10309000390771F09093AC018093AB01E091AF01DF
:1030A000F091B001309721F00084F185E02D099472
:1030B00008950C940F0981E008950E948C2385B730
:1030C000806885BF85B7806885BF0E943E070E94E3
:1030D0000C240C940214CF93C82F8091070282FF16
:1030E0001EC080FF1CC08FE497E00E94990680916B
:1030F000070280FF14C01F92CF938AE497E09F934A
:103100008F930E943207809107020F900F900F90CB
:103110000F9080FF04C088E497E00E9499068C2FEE
:10312000CF910C946D0ABF92CF92DF92EF92FF92F3
:103130000F931F93CF93DF93CDB7DEB72A970FB6C8
:10314000F894DEBF0FBECDBF0E945C080E945B18E2
:10315000882309F46FC082EBC82E81E0D82E10E0DE
:1031600000E0B02E802F0E949B08E82EF601F1901F
:103170006F01F81609F458C08091070281FD0E9482
:10318000A10890E080E0FE242F2D30E0482FB90107
:10319000082E02C0759567950A94E2F760FF3FC05C
:1031A0008E83BF8281E090E06C0102C0CC0CDD1CFC
:1031B0004A95E2F72E2D30E02C213D21232B09F4F6
:1031C00080E088870E9495238160782F9A8789877D
:1031D0004E815F8168858A850E943B19F801EE5413
:1031E000FE4F80818C2580830E94D5179091B1017C
:1031F000891789F10E94D5178093B1012A960FB6DD
:10320000F894DEBF0FBECDBFDF91CF911F910F911C
:10321000FF90EF90DF90CF90BF900C946B180196C9
:103220008730910509F0B2CF0F5F1F4F08301105AD
:1032300009F097CF8FEF89838A831B820E949523A1
:103240008160782F9D838C8349815A816B818D8128
:103250000E943B19C9CF2A960FB6F894DEBF0FBE65
:10326000CDBFDF91CF911F910F91FF90EF90DF9035
:10327000CF90BF900895CF93DF93CDB7DEB72B9754
:103280000FB6F894DEBF0FBECDBF4F835887698756
:103290007A878B871E821D8285E0FE013796DE01CC
:1032A000119601900D928A95E1F749815A816B81BF
:1032B0007C818D819E812B960FB6F894DEBF0FBE68
:1032C000CDBFDF91CF910C94921FFC018081918141
:1032D0000C94F221CF93C82F882309F4D4C08238EC
:1032E000C1F40E94D51781FDCEC089E30E94FF2161
:1032F0000E9443222FEF81EE94E0215080409040C5
:10330000E1F700C0000089E30E940622CF910C94EF
:1033100043228338A1F40E94D51780FDB4C083E511
:103320000E94FF210E9443222FEF81EE94E0215062
:1033300080409040E1F700C0000083E5E5CF84388D
:10334000A1F40E94D51782FD9EC087E40E94FF2150
:103350000E9443222FEF81EE94E021508040904064
:10336000E1F700C0000087E4CFCF8CEF8C0F813AEB
:1033700048F48C2F0E944825811185C08C2F0E9413
:10338000FF21C4CF80E28C0F883048F4C77081E001
:1033900001C0880FCA95EAF70E947922B7CF8BE562
:1033A0008C0F833068F481E890E0C53A31F083E80F
:1033B00090E0C63A11F482E890E0CF910C942D1879
:1033C00088E58C0F853108F05EC082EE90E0C83A47
:1033D00009F456C089EE90E0C93A09F451C08AEE6A
:1033E00090E0CA3A09F44CC085EB90E0CB3A09F47E
:1033F00047C086EB90E0CC3A09F442C083EB90E002
:10340000CB3BF1F184EB90E0CC3BD1F187EB90E04A
:10341000CD3AB1F18CEC90E0C03B91F18DEC90E0B5
:10342000CE3A71F183E891E0CF3A51F18AE891E028
:10343000C13B31F182E991E0C23B11F184E991E0B5
:10344000C33BF1F081E292E0C43BD1F083E292E031
:10345000C53BB1F084E292E0C63B91F085E292E098
:10346000C73B71F086E292E0C83B51F087E292E000
:10347000C93B31F090E080E0CA3B11F48AE292E06F
:10348000CF910C944318CF910895882309F44BC031
:10349000823871F40E94D51781FF45C089E30E94EC
:1034A000FF210E94432289E30E9406220C944322BA
:1034B000833859F40E94D51780FF35C083E50E94F8
:1034C000FF210E94432283E5EFCF843859F40E9404
:1034D000D51782FF28C087E40E94FF210E94432263
:1034E00087E4E2CF9CEF980F913AF0F290E2980FC8
:1034F000983050F4877091E001C0990F8A95EAF7EF
:10350000892F0E947F22D2CF9BE5980F933020F421
:1035100090E080E00C942D18885A853120F490E0DA
:1035200080E00C9443180895882321F00E947922AA
:103530000C9443220895882321F00E947F220C944A
:10354000432208958F929F92AF92BF92CF92DF92C3
:10355000EF92FF920F931F93CF93DF937C01D62FAF
:10356000C72FFC01058102950F70128111110E9475
:1035700096220E943C22C82E882371F01123B1F0BC
:1035800080E28D0F883090F082E00E9426220E9417
:103590003C2291E0C82EC926DC2ED2949FE0D9228D
:1035A000ED2DF0E0ED5EFA4C0C94A634C12CF4CF76
:1035B0000C2F0F70C07F11F00295007F1123A9F02E
:1035C000002359F080E28D0F883010F0D11109C02E
:1035D000802F0E9479220E9443228D2F0E946A1917
:1035E00014C0802F0E948922F6CF8D2F0E94451A89
:1035F000002359F080E28D0F883010F0D11133C0D4
:10360000802F0E947F220E94432298E0D91639F031
:10361000D91648F086E08D0D8F70823020F40E941C
:10362000D5170E946D0ACC2009F497C10E94192277
:1036300080FD93C1F70112820E9413220E9414217F
:10364000C7010E94BA1C0E941322DF91CF911F91E3
:103650000F91FF90EF90DF90CF90BF90AF909F9031
:103660008F900C943521802F0E948F22CCCFFC2F7D
:10367000FF70BF2EC07FC03219F0B29480EFB82225
:10368000DD2369F0D13049F1112391F1002351F18B
:10369000F701858180FFA1CF8F70858323C011231F
:1036A00081F0011106C00E94AF228B290E94941A5A
:1036B000ACCF0130C1F70E94AF228B290E94A92212
:1036C000A4CF011106C00E94AC228B2D0E949B1A30
:1036D0009CCF013009F499CFF6CF112329F00630A1
:1036E00008F093CF8B2DE2CF053008F08ECFEDCFD1
:1036F000002359F38D2F0E94451A87CF8C2F869572
:103700008695837069F0813009F07FCF8D2F9C2FD3
:103710009370111102C090E080E00E94431875CFB1
:103720008D2F9C2F9370111102C090E080E00E94B9
:103730002D186BCF8C2F837009F047C0111165CF06
:103740002D2F229526952770220F220F6D2F6F7037
:10375000862E912CB12CA12C022E04C0880C991C11
:10376000AA1CBB1C0A94D2F760E070E0CB01D4FF26
:103770000FC06FE070E080E090E004C0660F771F3C
:10378000881F991F2A95D2F760957095809590951E
:10379000C695C695C370C23051F080F46829792966
:1037A0008A299B29C13071F00E94C6202ECF68293A
:1037B00079298A299B290E94D82027CF0E94C620D8
:1037C000C501B4010E94B42020CF8695112311F0C9
:1037D0008C2F8170882309F418CF2D2F22952695E0
:1037E0002770220F220F6D2F6F70862E912CB12C17
:1037F000A12C022E04C0880C991CAA1CBB1C0A9484
:10380000D2F760E070E0CB01D4FF0FC06FE070E052
:1038100080E090E004C0660F771F881F991F2A95EB
:10382000D2F76095709580959095C695C695C370B2
:10383000C23051F080F4682979298A299B29C13046
:1038400071F00E948B21E1CE682979298A299B2970
:103850000E949D21DACE0E948B21C501B4010E94F5
:103860007921D3CEE0E2ED0FE53108F04DC0F0E074
:10387000ED5DFA4C0C94A634DF708C2F8F71112300
:1038800021F00E9414218D2F11CF0E9435218D2F00
:103890001DCF112341F0053008F0B7CE8C2F8F716A
:1038A0000E945821B2CE063008F0AFCEF7CF8C2F51
:1038B0008F71112339F00E941421A7CE8C2F8F71A4
:1038C0001123C9F30E943521A0CE112329F08C2F9A
:1038D0008F710E94FF2099CE0E94FA2096CE11236C
:1038E00049F0CF718C2F0E94142163E08C2F0E942D
:1038F0001D228BCE81E00E942622023008F485CE64
:1039000082E00E94262281CE112329F0011165CE8A
:103910008C2F8F71D0CF002369F0D93309F0EACE14
:10392000FFEF27EE83E0F15020408040E1F700C038
:103930000000E0CE8C2F8F71C5CF4C2F4F706D2FB4
:10394000C7010E941F0D0E942C205FCE4C2F4F708C
:103950006D2FC7010E94220D58CEDF91CF911F918C
:103960000F91FF90EF90DF90CF90BF90AF909F901E
:103970008F9008950F931F93CF93DF93EC018B816A
:103980009C81892B29F08881998189238F3F29F493
:10399000DF91CF911F910F910895CE010E94850A6A
:1039A0008823B1F3688179818A810E94FC218C018E
:1039B0000E94AF210E94B120B801CE01DF91CF91CA
:1039C0001F910F910C94A21A0E9496220E94A62287
:1039D0000E940D220E94432290E080E00E942D1858
:1039E00090E080E00C9443180E9486220C94E41C22
:1039F0000E94F221E92FE295EF70E250EE3070F470
:103A0000F0E0E85CFA4C0C94A634803F19F020F406
:103A1000803E20F481E00895843FE1F380E0089542
:103A2000803EC0F3813FD1F7F5CF93FB882780F923
:103A30000895CF93DF9300D000D00F92CDB7DEB7BB
:103A40000F900F900F900F900F90DF91CF910895EE
:103A5000CF93DF9300D000D000D0CDB7DEB726964D
:103A60000FB6F894DEBF0FBECDBFDF91CF910895A2
:103A70001F93CF93DF93C091BA0116E08091BB01F1
:103A80008C1304C0DF91CF911F910895D0E01C9F4B
:103A9000F0011D9FF00D1124E454FE4F408151812F
:103AA00062817381848195810E94281D2196C7704F
:103AB000E5CF4091EC015091ED016091EE017091E4
:103AC000EF018091F0019091F1010C94281D1F935A
:103AD000CF93DF938091F101807FC1F48091EE015B
:103AE0008823A1F08091BA01C091BB016091EC01E3
:103AF0007091ED014091EF015091F001D62FD72345
:103B0000DA01A095B09516E0C81304C0DF91CF91FB
:103B10001F91089590E04115510511F0DF3F31F4F8
:103B200001968770F1CF2A0F3B1F17C0189FF00135
:103B3000199FF00D1124E454FE4F21812713F0CF7B
:103B400020812613EDCF22812111EACF23813481F8
:103B50002417350740F3241B350B283C310500F7AB
:103B60002091F1012F7020612093F10126E0289F20
:103B7000F001299FF00D1124EF53FE4F80818F70CB
:103B8000806180838CEE91E00E94BA1CDF91CF911E
:103B90001F910C94381DBF92CF92DF92EF92FF924B
:103BA0000F931F93CF93DF93CDB7DEB761970FB617
:103BB000F894DEBF0FBECDBF8C0185E0F801DE01B9
:103BC0001D9601900D928A95E1F7D8014C911196BE
:103BD0005C9111971296EC9012978091EF01909161
:103BE000F001009709F47FC12091EC013091ED01C3
:103BF000622F63236F3F09F476C11396CD90DC905A
:103C0000B090EE01BB2009F411C1C816D906D0F15D
:103C1000F601E81BF90BCF01FF24F394883C9105D2
:103C200008F0F12C8091F101982F907FFF2009F48A
:103C3000B8C091117FC0FE2C351329C0241327C0B2
:103C4000E11025C08F7080618093F1010E94591DA1
:103C50008CEE91E00E94BA1C8091F101D80115967A
:103C60008C938F2D61960FB6F894DEBF0FBECDBF3B
:103C7000DF91CF911F910F91FF90EF90DF90CF9048
:103C8000BF900895809590958C0D9D1DC5CFCD2832
:103C900029F0852F84238F3F09F041C180E0B82FA0
:103CA000B170DB2E80FF3CC08091BA012091BB0136
:103CB00036E0821315C04D875E878D859E850E94F4
:103CC000F221292F22952F702230F0F0243018F5A0
:103CD0009F70F1F0F8019581907FD1F4D12C1EC036
:103CE00090E0389FF001399FF00D1124E454FE4F0D
:103CF0006181651306C06081641303C06281E612AE
:103D00000FC001968770D5CF9F7011F0882331F3D3
:103D1000805E883018F3C8010E94BA1CFD2CA1CF28
:103D2000EE2009F49ECF8091F10181608093F10132
:103D3000F12C97CF351306C0241304C0D801EE2010
:103D400009F49AC04D875E878D859E850E94F81C78
:103D5000882319F1EE2009F18091F101803270F091
:103D60002091EC013091ED0138872F831986DB8695
:103D7000CA868C87CE0107960E94BA1C86E0F8019D
:103D8000ACEEB1E001900D928A95E1F70E94671DBB
:103D90000E94591DFF24F39464CFC8010E94BA1CED
:103DA000F9CF911113C07C2DD98AC88A6E2D8989CB
:103DB0000E94191D8CEE91E00E94BA1C86E0ECEE88
:103DC000F1E0DF011D928A95E9F763C0351312C057
:103DD000241310C0E1100EC0F8018583C8010E94B1
:103DE000BA1CECEEF1E086E0DF011D928A95E9F75E
:103DF000FB2C37CF4D875E878D859E850E94F81CF2
:103E0000882359F2EE2049F28091F101803208F4C2
:103E1000B5CF2091EC013091ED013A8329831B82CB
:103E2000DD82CC828E83CE010196A6CFC816D9063C
:103E300098F1F601E81BF90BCF01F12C883C9105B4
:103E400008F049C0FE2CEE2009F4A7CF351332C08C
:103E5000241330C08091F10180FD23C0982F907F02
:103E600001F1D80115968C931597903F39F0982F52
:103E7000907F905F8F70892B15968C93C8010E945C
:103E8000BA1C86E0F801ACEEB1E001900D928A9583
:103E9000E1F70E94591DE5CE809590958C0D9D1DF2
:103EA000CCCF86E0F801ACEEB1E001900D928A959E
:103EB000E1F7D7CE4D875E878D859E850E94F81CE1
:103EC00081115CCF8091F10181608093F101C80183
:103ED0000E94BA1CC6CE7C2DD98AC88A6E2D8989CB
:103EE0000E94191D6BCFEE2009F457CF4D875E87D6
:103EF0008D859E850E94F81CF82E882309F44DCFED
:103F000086E0F801ACEEB1E001900D928A95E1F700
:103F10008CEE91E00E9465190E94671DBACF81E086
:103F20008E25BDCE1F93CF93DF93CDB7DEB72C97F1
:103F30000FB6F894DEBF0FBECDBF4F835887698799
:103F40007A878B879C87CE0107960E94CB1D88239A
:103F500069F08A859B85892B39F04F815885842F9C
:103F600085238F3F09F071C016E05FC086E0FE0137
:103F70003796DE01119601900D928A95E1F78A85B8
:103F80009B85892B89F388859F8189238F3F61F3E6
:103F90002091BB0130E0C9010196877099274091BB
:103FA000BA014817190671F40E94F41C1092BB0163
:103FB0001092BA0186E0ECEEF1E0DF011D928A95E5
:103FC000E9F7D2CF96E0929FD001939FB00D1124D4
:103FD000A454BE4FFE01319601900D929A95E1F7DF
:103FE0008093BB010E94381DBFCF819FC001112467
:103FF00084549E4F0E94CB1D8823E9F0E091BA01C2
:104000001E9FF0011124E454FE4F408151816281D2
:104010007381848195810E94281D8091BA0190E06E
:104020000196877099278093BA018091BA01909187
:10403000BB018913DACF2C960FB6F894DEBF0FBE02
:10404000CDBFDF91CF911F91089569857A858B85CA
:104050009C850E94281D88CFEF92FF920F931F939B
:10406000CF93DF938C01892B81F0F12CEE24E39424
:10407000E8012196F8018491843770F4843008F0C7
:104080005FC08130B1F08230A1F1DF91CF911F91FB
:104090000F91FF90EF900895853709F44CC008F414
:1040A0003DC09CE7980F903780F78F770E94451AA4
:1040B00049C00E5F1F4FFE01849190E2980F983027
:1040C00060F48770FE2D01C0FF0F8A95EAF78F2FED
:1040D0000E9499220E94432202C00E946A198F2DD9
:1040E000815030F2EFE9FFE03197F1F700C00000B6
:1040F000F7CF0E5F1F4FFE01849190E2980F98302A
:1041000050F48770FE2D01C0FF0F8A95EAF78F2FBC
:104110000E949F22DFCF0E94451AE1CF0E5F1F4F02
:10412000FE01C491C150D8F28FE99FE00197F1F7E9
:1041300000C00000F7CF0E5F1F4FFE01F490CFCFFD
:104140000E946A198E01CBCF08950E94A42060932B
:10415000F6017093F7018093F8019093F9010C94A4
:10416000E41C08950C94A5200F931F930091F60171
:104170001091F7012091F8013091F901602B712B1A
:10418000822B932B1F910F910C94A5200F931F93BB
:104190000091F6011091F7012091F8013091F90199
:1041A00060237123822393231F910F910C94A520E8
:1041B0000F931F930091F6011091F7012091F801E0
:1041C0003091F90160277127822793271F910F9162
:1041D0000C94A5200C94A4200C94EA200E94EC20BE
:1041E0006093F2017093F3018093F4019093F501D1
:1041F0000C94E41C60E070E0CB010C94EE200F9373
:104200001F9341E050E060E070E08A019B0104C030
:10421000000F111F221F331F8A95D2F7C901B80161
:104220001F910F910C94EE200F931F9341E050E0EB
:1042300060E070E004C0440F551F661F771F8A9529
:10424000D2F78091F2019091F301A091F401B09125
:10425000F5018A019B01082B192B2A2B3B2BC90145
:10426000B8011F910F910C94EE200F931F9341E022
:1042700050E060E070E004C0440F551F661F771FD8
:104280008A95D2F7CB01BA0160957095809590958B
:104290000091F2011091F3012091F4013091F501A8
:1042A00060237123822393231F910F910C94EE209E
:1042B0000F931F9341E050E060E070E004C0440FB2
:1042C000551F661F771F8A95D2F78091F201909152
:1042D000F301A091F401B091F5018A019B01082737
:1042E00019272A273B27C901B8011F910F910C9468
:1042F000EE200F931F930091F2011091F301209192
:10430000F4013091F501602B712B822B932B1F91BF
:104310000F910C94EE200F931F930091F2011091D6
:10432000F3012091F4013091F50160237123822380
:1043300093231F910F910C94EE200F931F930091E4
:10434000F2011091F3012091F4013091F501602701
:104350007127822793271F910F910C94EE200895C7
:10436000BF92CF92DF92EF92FF920F931F93CF9362
:10437000DF938C01C090F201D090F301E090F40142
:10438000F090F5018091F6019091F701A091F8016C
:10439000B091F901C82AD92AEA2AFB2ACFE1D0E054
:1043A000BC2ED701C6010C2E04C0B695A7959795D3
:1043B00087950A94D2F780FD0EC0219788F7B12C1B
:1043C0008B2DDF91CF911F910F91FF90EF90DF9098
:1043D000CF90BF900895B8018C2F0E943F0D019798
:1043E00061F3EECFCF93DF93EC010E94B021BE01C9
:1043F000DF91CF910C943F0DCB010C94F221682FEB
:1044000080910301909104010C944D23682F8091B9
:104410000301909104010C944F238091030190912A
:1044200004010C9451238091FA0185958595859519
:1044300008958091FA018770089598E0899F90010E
:104440001124622B6093FA010C9414219091FA01CB
:10445000809589238093FA01282F277061F4282FF3
:10446000082E000C330B9217130629F085958595BD
:1044700085950C94352108959091FA01977081E00B
:1044800009F480E00895E0910301F0910401809126
:1044900006028083E0910301F091040180819091F4
:1044A0000502892B8083E0910301F0910401808152
:1044B00090910402892B80839091FB01992381F0D4
:1044C000E0910301F09104018081892B8083809128
:1044D0000301909104010E94192381111092FB01A4
:1044E00080910301909104010C94E11780910602E0
:1044F000089590910602892B809306020895809575
:104500009091060298239093060208951092060255
:10451000089590910502892B809305020895809556
:104520009091050298239093050208951092050238
:10453000089590910402892B809304020895809538
:10454000909104029823909304020895109204021B
:1045500008958093FB0108951092FB0108958091C6
:10456000FB01089590935D0180935C01089582950D
:1045700090E09C01220F331F220F331F2C7C959556
:104580008795959587958373282B30E0C901880F0F
:10459000991F8A7A359527952575822B0895CF9393
:1045A000DF93D92F0E94B722C82F8D2F0E94B722E8
:1045B0009C2FDF91CF9108956DEE7EEF90E080E02B
:1045C0000E94DE3460E082E090E00E94C03460E04F
:1045D00083E090E00E94C03460E084E090E00E94BC
:1045E000C03460E085E090E00E94C03440E050E0DC
:1045F000BA0188E090E00C94D23490E080E00E9410
:10460000BA3421E08D3E9E4F09F020E0822F0895BC
:1046100082E090E00C94AC3483E090E00C94AC34F5
:1046200084E090E00C94AC34682F84E090E00C942B
:10463000C034FC0131969C01285F3F4F80E091918E
:1046400091118F5FE217F307D1F708959C01FC01E8
:1046500032969FEF80E04191461751F09F3F19F449
:10466000411101C0982F8F5F8630A9F79F3F09F451
:104670000895290F311D97FD3A95F9016283089538
:10468000FC01329608962191261303C0DF01119791
:104690001C92E817F907B9F708950C9426230C9497
:1046A0004023FC0111821282138214821582168229
:1046B0001782089508950C945A230E94F41C0E94B6
:1046C000D5170E946D0A0C945B231F921FB61F9290
:1046D00011248F939F93AF93BF9380910802811110
:1046E00013C08091A1029091A202A091A302B09167
:1046F000A4024196A11DB11D8093A1029093A20234
:10470000A093A302B093A402BF91AF919F918F9108
:104710001F901FBE1F90189582E084BD93E095BD49
:104720009AEF97BD80936E0008952FB7F89480910B
:10473000A1029091A202A091A302B091A4022FBF66
:1047400008952FB7F8946091A1027091A202809110
:10475000A3029091A4022FBF0895CF92DF92EF920F
:10476000FF920F931F932FB7F8944091A10250919D
:10477000A2026091A3027091A4022FBF6A017B0183
:10478000EE24FF248C0130E020E0C016D106E206C2
:10479000F30650F0481B590BCA011F910F91FF906F
:1047A000EF90DF90CF90089541505109F3CF789466
:1047B0001F921FB61F9211248F939F93AF93BF93A5
:1047C0008091A1029091A202A091A302B091A402B3
:1047D0000196A11DB11D8093A1029093A202A09306
:1047E000A302B093A402BF91AF919F918F911F90AC
:1047F0001FBE1F90189587E797E790930108809355
:10480000000888E19AE00FB6F894A89580936000BC
:104810000FBE90936000FFCF0E94FD22811102C065
:104820000E94DC220E940823809307020E9410232A
:1048300090E09093A6028093A5020E940C23682F1B
:1048400070E090E080E00C94B220CF93C82F1F92CC
:104850008F9388E697E09F938F930E94320761E0E1
:1048600070E080E090E004C0660F771F881F991FFA
:10487000CA95D2F70E94B2200F900F900F900F9020
:10488000CF910C94F41C873208F040C08E3108F0B0
:10489000F9C08E3009F495C078F4873009F477C0F8
:1048A0008B3009F45EC0863009F460C083E79AE07B
:1048B0000E94990680E00895863109F4ACC078F42E
:1048C0008031A1F790910702892F877F93FF88603D
:1048D0008093070283FF85C082E89AE011C0893186
:1048E00009F482C08B3111F790910702892F8D7FD7
:1048F00091FF82608093070281FF60C08BEB9AE09A
:104900000E94990680910702816055C0883349F161
:1049100050F4893221F0853311F0873239F680E086
:104920000E9425241CC08334D1F328F48A3308F470
:10493000BDCF8953F5CF883409F0B8CF0E94F41C5D
:1049400081EE9AE00E9499062FEF83ED90E32150CB
:1049500080409040E1F700C000000E94FB2381E00E
:10496000089587EE98E00E949906F9CF809107029A
:10497000807F809307028CEC98E00E9499068DEF6F
:104980009AE00E94990681E080930902089590912F
:104990000702892F8E7F90FF81608093070280FF3E
:1049A00003C085ED9AE0DFCF88EC9AE00E9499067B
:1049B00080910702817F80930702D1CF8DEA9AE030
:1049C000D2CF90910702892F8B7F92FF84608093D2
:1049D000070282FF03C08EE99AE092CF8EE89AE048
:1049E000C2CF85E79AE0BFCF8DEB98E00E94990691
:1049F00082E998E00E9499068CE598E00E94990669
:104A00008EE298E00E94990681E098E00E94990663
:104A100086ED97E0A8CF88EC97E00E9499060E9467
:104A2000D5171F928F938EEA97E09F938F930E94E2
:104A3000320780910F011F928F9387E997E09F9330
:104A40008F930E943207809116021F928F9384E801
:104A500097E09F938F930E9432070E94A1239F9318
:104A60008F937F936F938DE697E09F938F930E9430
:104A700032078DB79EB742960FB6F8949EBF0FBE11
:104A80008DBF6DCF8D514CCF80E008950C9444259F
:104A9000CF93C82F80910902882331F08130B1F083
:104AA0001092090280E010C0E0910301F09104012E
:104AB00080818232B9F78C2F0E94442581111CC05D
:104AC0008C2F0E9443248170CF910895E0910301BF
:104AD000F09104018081823271F38C2F0E9446256F
:104AE000811119C0C431C9F050F4CB3061F082E6B5
:104AF00097E00E94990613C081E090E0E4CFC932AC
:104B000061F0C833A1F78CEC98E00E94990684E626
:104B100097E00E94990681E0D6CF1092090280E0CA
:104B2000D2CF80911502089508959FB7F8941092FE
:104B30000C029FBF9091AB02943009F048C02091C5
:104B4000E9002F703091EC00932F917030FD90E8C8
:104B5000922B23E02093E9002091EB0020FF34C04A
:104B60002091EE0027FF30C020910A02222321F07D
:104B70002091E80025FF28C010920A0226E030911B
:104B8000E80035FF14C08093F1008091E80085FDB6
:104B900027C08091E80080FFFCCF8091E8008E77ED
:104BA0008093E8009F709093E90080E00895309131
:104BB000AB02343049F43091EB0035FD05C0215093
:104BC00041F481E080930A029F709093E9008FEF97
:104BD0000895EFE9FFE03197F1F700C00000CFCF73
:104BE0008FB7F89421E020930C028FBFDBCFEF92B8
:104BF000FF921F93CF93DF9300D00F92CDB7DEB714
:104C00007C010E947F28182F8DEF810F823060F584
:104C100070E060E0C7010E94B62D143039F583E0E2
:104C20008983FB82EA8282E08093E9008FEF909192
:104C3000E800815095FD06C095ED9A95F1F70000CA
:104C40008111F5CF8091E80085FF10C050E040E071
:104C500063E070E0CE0101960E9486288091E80012
:104C60008E778093E80002C01230C9F20F900F9047
:104C70000F90DF91CF911F91FF90EF900895CF9308
:104C8000DF9300D00F92CDB7DEB72091AB02243076
:104C900029F522E02983805891099B838A832093F8
:104CA000E9008FEF9091E800815095FD06C095EDE9
:104CB0009A95F1F700008111F5CF8091E80085FF0A
:104CC0000DC050E040E063E070E0CE0101960E942C
:104CD00086288091E8008E778093E8000F900F90EF
:104CE0000F90DF91CF9108951F93CF93DF93EC0145
:104CF0000E947F28182F8DEF810F823088F546E0C3
:104D0000BE016E5F7F4F88810E94B42D143051F533
:104D100081E08093E9008FEF9091E800815095FD4C
:104D200006C095ED9A95F1F700008111F5CF8091BD
:104D3000E80085FF17C050E040E068E070E0CE0179
:104D40000E9486288091E8008E778093E80088E0B2
:104D5000FE01ADE0B2E001900D928A95E1F702C04C
:104D60001230B1F2DF91CF911F91089582E29BE062
:104D70000E9499068091AA02811109C00E94162AF8
:104D80000E94732A8091E20084608093E20008957B
:104D90008EE19BE00E9499061092AA0208958AE192
:104DA0009BE00C94990686E19BE00C94990682E1C5
:104DB0009BE00E9499060C945D2320910B022F5FCB
:104DC000822F62E30E945034992319F020930B0242
:104DD000089510920B0280910C028823F1F08091CB
:104DE000AB028430C1F49091E9009F702091EC00F7
:104DF000822F817020FD80E8892B93E09093E90059
:104E00009091EB0090FF04C09091EE0097FD08C0D8
:104E10008F708093E90010920C0208951092F100B7
:104E20009091E80095FDFACF9091E80090FFF0CFC7
:104E30009091E8009E779093E800EACF42E061EC21
:104E400081E00E94922942E061EC82E00E94922976
:104E500042E261EC83E00C9492298091AD028330B0
:104E600009F452C030F4813059F1823009F48EC017
:104E700008958A3009F47AC08B3009F460C0893013
:104E800009F041C08091AC028132E9F58091B00215
:104E90009091B102892BB9F58091E800877F8093CA
:104EA000E8008091E80082FF2AC08091F1008093A1
:104EB00015028091E8008B778093E8000C94C62956
:104EC0008091AC02813AF9F48091E800877F809369
:104ED000E8008091B0029091B102892B61F468E002
:104EE0008DE092E070E00E94D5288091E8008B77F9
:104EF0008093E800089560E090E080E0F3CF809137
:104F0000AB028111CECF08958091AC02813AD9F7DE
:104F10008091B0029091B102892BA9F78091E800AD
:104F2000877F8093E8008091E80080FFFCCF80912C
:104F30000F018093F1008091E8008E77BDCF8091C2
:104F4000AC02813201F78091B0029091B102892BBD
:104F5000D1F68091E800877F8093E8000E94C629FF
:104F60008091AE0280930F010C94F41C8091AC02EE
:104F7000813249F68091E800877F8093E8000E94A3
:104F8000C6298091AF028093160208958091AC02E9
:104F9000813A09F0B8CF8091E800877F8093E800DC
:104FA0008091E80080FFFCCF80911602C2CF84B7C9
:104FB000877F84BF0FB6F894A895809160008861C0
:104FC00080936000109260000FBE80E880936100C3
:104FD000109261000E9459180E94162A0E94732A9A
:104FE0008091E20084608093E20085E995E20E946E
:104FF000B22278940E94FB2C0E945D1885E091E01B
:105000000E94D01781E09BE00E9499060E949318AD
:105010000E945B170E94B32DF9CF0C940F28292F03
:1050200033272330310521F168F42130310509F4AB
:1050300049C02230310509F44AC090E080E030E0F8
:1050400020E029C02132310581F122323105A9F752
:105050006330710590F7FB01EE0FFF1FED5DFE4F12
:1050600020813181605E7E4FFB01808190E013C022
:1050700099278130910599F0009741F08230910590
:1050800089F00397D1F6E6E2FBE002C0EEE4FBE034
:10509000849190E09F01FA01318320830895EEE32B
:1050A000FBE0F6CFECE2FBE0F3CF6330710528F6CE
:1050B000660F771FFB01E75DFE4F2081318189E09C
:1050C00090E0E9CF82E190E02DEA3BE0E4CF8BE590
:1050D00090E022E53BE0DFCF0895CF93C82F0E94F8
:1050E0006C28C0931001CF9108958091AB02843059
:1050F00021F00E94B12D83E0089582E0089580910F
:105100001001811102C00C9475280895AF92BF92CE
:10511000CF92DF92FF920F931F93CF93DF936C0197
:10512000EB018A010E94E529F82E811123C00115A7
:10513000110539F0F80180819181C81BD90BC80E87
:10514000D91EB12CA12C2097A9F08091E80085FDF3
:1051500022C08091E8008E778093E8000115110548
:10516000A1F0F80180819181A80EB91EB182A082C0
:1051700085E0F82E8F2DDF91CF911F910F91FF9039
:10518000DF90CF90BF90AF9008950E94E5298823CB
:10519000D1F2F82EEFCFF60181916F018093F100EB
:1051A0002197FFEFAF1ABF0ACECFFC018091B20268
:1051B0009091B30286179707A0F06115710529F445
:1051C0009091E8009E779093E80090E0611571055A
:1051D00051F4911108C08091E80082FF34C080E052
:1051E0000895BC01F2CF8091AB028823C1F18530D4
:1051F000C1F18091E80083FD30C08091E80082FD1C
:10520000EACF8091E80080FFE1CF8091F300209108
:10521000F200382F6115710519F02830310558F06A
:1052200091E02830310509F090E02091E8002E77D8
:105230002093E800CBCF81918093F10061507109F8
:105240002F5F3F4FE7CF8091AB02882341F085303D
:1052500041F08091E80083FFBECF81E0089582E0B5
:10526000089583E00895FC018091B2029091B30209
:1052700086179707A0F06115710529F48091E80061
:105280008E778093E80090E06115710551F49111DB
:1052900008C08091E80082FF35C080E00895BC011D
:1052A000F2CF8091AB028823C9F18530C9F180919A
:1052B000E80083FD31C08091E80082FDEACF809153
:1052C000E80080FFE1CF8091F3002091F200382FB9
:1052D0006115710519F02830310558F091E028303A
:1052E000310509F090E08091E8008E778093E80026
:1052F000CBCF84918093F1003196615071092F5F7B
:105300003F4FE6CF8091AB02882341F0853041F0DA
:105310008091E80083FFBDCF81E0089582E0089589
:1053200083E00895982F973028F08F708093E900DC
:1053300081E008959093E900242F762F50E098178C
:1053400031F07091EC002091ED005091F00021FDC2
:1053500002C09F5FE8CF3091EB003E7F3093EB00BF
:105360003091ED003D7F3093ED003091EB003160E6
:105370003093EB007093EC002093ED005093F0001D
:105380002091EE0027FDE5CF80E008958091AC02EA
:1053900087FF13C08091E80082FF06C08091E8007B
:1053A0008B778093E80004C08091AB028111F2CF2B
:1053B00008958091AB028823D9F38091E80080FFA3
:1053C000F8CF8091E8008E77ECCF2091E400309107
:1053D000E50095E6A9012091EC00822F817020FF65
:1053E00006C08091E80080FF06C080E0089520910B
:1053F000E80022FD1AC08091AB02882389F0853035
:1054000089F08091EB0085FD0FC02091E400309180
:10541000E50042175307F9F29150E1F684E0089550
:1054200082E0089583E0089581E008950E94842A2F
:105430000E948C2AE0EEF0E0808181608083E8EDBC
:10544000F0E080818F77808319BCA7EDB0E08C916C
:105450008E7F8C9380818F7E80831092AA02089524
:105460000F931F93CF93DF930E94842A0E948C2A6C
:10547000C8EDD0E088818F778883888180688883B1
:1054800088818F7D888319BC1092AB021092A7028D
:105490001092A9021092A80200EE10E0F80180819B
:1054A0008B7F808388818160888342E060E080E038
:1054B0000E949229E1EEF0E080818E7F8083E2EE0F
:1054C000F0E0808181608083808188608083F80142
:1054D00080818E7F8083888180618883DF91CF91F6
:1054E0001F910F910895E8EDF0E080818F7E808319
:1054F000E7EDF0E080818160808384E082BF81E01D
:105500008093AA020C94302AE8EDF0E080818E7F2F
:1055100080831092E20008951092DA001092E10068
:1055200008951F920F920FB60F9211242F933F935D
:105530004F935F936F937F938F939F93AF93BF939B
:10554000EF93FF938091E10082FF0BC08091E20016
:1055500082FF07C08091E1008B7F8093E1000E9471
:10556000DD268091DA0080FF19C08091D80080FF8D
:1055700015C08091DA008E7F8093DA008091D90087
:1055800080FF96C080E189BD82E189BD09B400FE3B
:10559000FDCF81E08093AB020E94B6268091E100AE
:1055A00080FF19C08091E20080FF15C08091E20069
:1055B0008E7F8093E2008091E20080618093E20020
:1055C0008091D80080628093D80019BC85E08093D8
:1055D000AB020E94D3268091E10084FF2BC0809112
:1055E000E20084FF27C080E189BD82E189BD89B5E1
:1055F000982F917080FFFBCF8091D8008F7D809392
:10560000D8008091E1008F7E8093E1008091E200DC
:105610008F7E8093E2008091E20081608093E200BF
:105620008091A702882309F449C084E08093AB02EB
:105630000E94D7268091E10083FF29C08091E2007B
:1056400083FF25C08091E100877F8093E10082E0A5
:105650008093AB021092A7028091E1008E7F80932D
:10566000E1008091E2008E7F8093E2008091E20071
:1056700080618093E20042E060E080E00E94922935
:105680008091F00088608093F0000E94CF26FF9107
:10569000EF91BF91AF919F918F917F916F915F91AA
:1056A0004F913F912F910F900FBE0F901F90189523
:1056B00019BC1092AB020E94C82670CF8091E30003
:1056C00087FD93E09093AB02B3CF1F920F920FB67A
:1056D0000F9211242F933F934F935F936F937F9378
:1056E0008F939F93AF93BF93CF93DF93EF93FF93EA
:1056F000D091E900DF708091EC00C82FC17080FD6F
:10570000C0E81092E9008091F000877F8093F0005C
:1057100078940E94A92B1092E9008091F000886093
:105720008093F000CD2BCF70C093E900FF91EF91F3
:10573000DF91CF91BF91AF919F918F917F916F91A9
:105740005F914F913F912F910F900FBE0F901F903F
:1057500018951F93CF93DF93CDB7DEB7AA970FB6F7
:10576000F894DEBF0FBECDBF8CEA92E02091F1002D
:10577000FC012193CF01F2E0843B9F07B9F70E941F
:105780002D278091E80083FF1EC18091AC0290918B
:10579000AD029A3008F017C1E92FF0E0EA5BFA4C4D
:1057A0000C94A634803899F0823809F00CC18091AD
:1057B000B0028F70873008F006C18093E9008091B5
:1057C000EB0085FB882780F91092E90006C08091E4
:1057D000A8029091A902911182609091E800977FB0
:1057E0009093E8008093F1001092F1008091E8001E
:1057F0008E77E5C0882309F4D3C0823009F0E3C076
:105800008091AE028111D6C08091B0028F702FEFCF
:10581000280F263008F0D7C08093E9002091EB00D4
:1058200020FFC8C0933031F48091EB0080628093F8
:10583000EB00C0C09091EB0090619093EB0021E0F1
:1058400030E001C0220F8A95EAF72093EA00109217
:10585000EA008091EB008860EACF8111B4C010911A
:10586000AE021F778091E3008078812B8093E30064
:105870008091E800877F8093E8000E94C62980918C
:10588000E80080FFFCCF8091E30080688093E30014
:1058900082E0111183E08093AB0295C08058823082
:1058A00008F091C08091AE029091AF028C3D23E050
:1058B0009207A1F583E08A838AE289834FB7F8943F
:1058C000DE01139620E03EE051E2E32FF0E050933A
:1058D0005700E49120FF03C0E295EF703F5FEF7047
:1058E0008E2F90E0EA30C0F0C7968D939D932F5F86
:1058F000243159F74FBF8091E800877F8093E800FB
:105900006AE270E0CE0101960E94D5288091E800FD
:105910008B778093E80057C0C096E7CF6091B002C4
:105920007091B102AE014F5F5F4F0E940D28BC0124
:10593000892B09F448C09091E800977F9093E80084
:1059400089819A810E943329E1CF8038E1F58091E5
:10595000E800877F8093E8008091A7028093F100A0
:1059600045CF811130C09091AE02923060F58091A8
:10597000E800877F8093E8009093A7020E94C629E1
:105980008091A702882311F084E005C08091E30094
:1059900087FDFACF81E08093AB020E941E2713C0DF
:1059A0008091AE02813079F481E0933009F080E09B
:1059B0008093A9021092E9008091E800877F80938C
:1059C000E8000E94C6298091E80083FF0AC0809108
:1059D000E800877F8093E8008091EB0080628093ED
:1059E000EB00AA960FB6F894DEBF0FBECDBFDF91D5
:1059F000CF911F910895CF938091AB028823A1F09E
:105A0000C091E900CF709091EC00892F817090FDDA
:105A100080E8C82B1092E9008091E80083FD0E9485
:105A2000A92BCF70C093E900CF910895982F9F7054
:105A300021E030E001C0220F9A95EAF7E82FF0E06C
:105A400084E0F595E7958A95E1F782A161307105CB
:105A500019F4282B22A3089520952823FBCFCF9259
:105A6000DF92EF92FF920F931F93CF93DF937C010E
:105A70006A0110E000E00C151D0581F0EB01D70173
:105A8000ED91FC910190F081E02D6991C70109959C
:105A9000892B21F00F5F1F4FBE01EDCFC801DF91B1
:105AA000CF911F910F91FF90EF90DF90CF900895CD
:105AB0000F931F93CF93DF93EC01122F20E00E94EE
:105AC000733087E491E0998388831D8B0E8BDF917F
:105AD000CF911F910F9108950F931F93CF93DF9351
